{"contracts/ChatGPTSubscription.sol":{"ChatGPTSubscription":{"abi":[{"inputs":[{"internalType":"address","name":"_treasury","type":"address"}],"stateMutability":"nonpayable","type":"constructor"},{"anonymous":false,"inputs":[{"indexed":true,"internalType":"address","name":"previousOwner","type":"address"},{"indexed":true,"internalType":"address","name":"newOwner","type":"address"}],"name":"OwnershipTransferred","type":"event"},{"anonymous":false,"inputs":[{"indexed":false,"internalType":"address","name":"account","type":"address"}],"name":"Paused","type":"event"},{"anonymous":false,"inputs":[{"indexed":true,"internalType":"address","name":"user","type":"address"},{"indexed":false,"internalType":"uint256","name":"amount","type":"uint256"},{"indexed":false,"internalType":"enum ChatGPTSubscription.SubscriptionTier","name":"tier","type":"uint8"}],"name":"PaymentProcessed","type":"event"},{"anonymous":false,"inputs":[{"indexed":true,"internalType":"address","name":"user","type":"address"},{"indexed":false,"internalType":"uint256","name":"remainingQueries","type":"uint256"}],"name":"QueryUsed","type":"event"},{"anonymous":false,"inputs":[{"indexed":true,"internalType":"address","name":"user","type":"address"}],"name":"SubscriptionCancelled","type":"event"},{"anonymous":false,"inputs":[{"indexed":true,"internalType":"address","name":"user","type":"address"},{"indexed":false,"internalType":"enum ChatGPTSubscription.SubscriptionTier","name":"tier","type":"uint8"},{"indexed":false,"internalType":"uint256","name":"duration","type":"uint256"}],"name":"SubscriptionCreated","type":"event"},{"anonymous":false,"inputs":[{"indexed":true,"internalType":"address","name":"user","type":"address"},{"indexed":false,"internalType":"enum ChatGPTSubscription.SubscriptionTier","name":"tier","type":"uint8"},{"indexed":false,"internalType":"uint256","name":"newEndTime","type":"uint256"}],"name":"SubscriptionRenewed","type":"event"},{"anonymous":false,"inputs":[{"indexed":false,"internalType":"enum ChatGPTSubscription.SubscriptionTier","name":"tier","type":"uint8"},{"indexed":false,"internalType":"uint256","name":"monthlyPrice","type":"uint256"},{"indexed":false,"internalType":"uint256","name":"yearlyPrice","type":"uint256"}],"name":"TierUpdated","type":"event"},{"anonymous":false,"inputs":[{"indexed":false,"internalType":"address","name":"account","type":"address"}],"name":"Unpaused","type":"event"},{"inputs":[],"name":"FEE_DENOMINATOR","outputs":[{"internalType":"uint256","name":"","type":"uint256"}],"stateMutability":"view","type":"function"},{"inputs":[],"name":"MONTH_DURATION","outputs":[{"internalType":"uint256","name":"","type":"uint256"}],"stateMutability":"view","type":"function"},{"inputs":[],"name":"YEAR_DURATION","outputs":[{"internalType":"uint256","name":"","type":"uint256"}],"stateMutability":"view","type":"function"},{"inputs":[{"internalType":"address","name":"_user","type":"address"}],"name":"canMakeQuery","outputs":[{"internalType":"bool","name":"","type":"bool"}],"stateMutability":"view","type":"function"},{"inputs":[],"name":"cancelSubscription","outputs":[],"stateMutability":"nonpayable","type":"function"},{"inputs":[],"name":"emergencyWithdraw","outputs":[],"stateMutability":"nonpayable","type":"function"},{"inputs":[],"name":"getContractStats","outputs":[{"internalType":"uint256","name":"_totalRevenue","type":"uint256"},{"internalType":"uint256","name":"_totalSubscribers","type":"uint256"},{"internalType":"uint256","name":"_contractBalance","type":"uint256"}],"stateMutability":"view","type":"function"},{"inputs":[{"internalType":"address","name":"_user","type":"address"}],"name":"getRemainingQueries","outputs":[{"internalType":"uint256","name":"","type":"uint256"}],"stateMutability":"view","type":"function"},{"inputs":[{"internalType":"address","name":"_user","type":"address"}],"name":"getSubscriptionDetails","outputs":[{"internalType":"enum ChatGPTSubscription.SubscriptionTier","name":"tier","type":"uint8"},{"internalType":"uint256","name":"startTime","type":"uint256"},{"internalType":"uint256","name":"endTime","type":"uint256"},{"internalType":"bool","name":"isActive","type":"bool"},{"internalType":"bool","name":"autoRenew","type":"bool"},{"internalType":"uint256","name":"remainingQueries","type":"uint256"}],"stateMutability":"view","type":"function"},{"inputs":[{"internalType":"enum ChatGPTSubscription.SubscriptionTier","name":"_tier","type":"uint8"}],"name":"getTierPricing","outputs":[{"internalType":"uint256","name":"monthlyPrice","type":"uint256"},{"internalType":"uint256","name":"yearlyPrice","type":"uint256"},{"internalType":"uint256","name":"maxQueries","type":"uint256"},{"internalType":"bool","name":"unlimited","type":"bool"},{"internalType":"string","name":"features","type":"string"}],"stateMutability":"view","type":"function"},{"inputs":[{"internalType":"address","name":"_user","type":"address"}],"name":"hasActiveSubscription","outputs":[{"internalType":"bool","name":"","type":"bool"}],"stateMutability":"view","type":"function"},{"inputs":[],"name":"owner","outputs":[{"internalType":"address","name":"","type":"address"}],"stateMutability":"view","type":"function"},{"inputs":[],"name":"pause","outputs":[],"stateMutability":"nonpayable","type":"function"},{"inputs":[],"name":"paused","outputs":[{"internalType":"bool","name":"","type":"bool"}],"stateMutability":"view","type":"function"},{"inputs":[{"internalType":"address","name":"_user","type":"address"}],"name":"processAutoRenewal","outputs":[],"stateMutability":"nonpayable","type":"function"},{"inputs":[],"name":"protocolFee","outputs":[{"internalType":"uint256","name":"","type":"uint256"}],"stateMutability":"view","type":"function"},{"inputs":[{"internalType":"address","name":"","type":"address"}],"name":"queryUsage","outputs":[{"internalType":"uint256","name":"","type":"uint256"}],"stateMutability":"view","type":"function"},{"inputs":[],"name":"renounceOwnership","outputs":[],"stateMutability":"nonpayable","type":"function"},{"inputs":[{"internalType":"enum ChatGPTSubscription.SubscriptionTier","name":"_tier","type":"uint8"},{"internalType":"bool","name":"_yearly","type":"bool"},{"internalType":"bool","name":"_autoRenew","type":"bool"}],"name":"subscribe","outputs":[],"stateMutability":"payable","type":"function"},{"inputs":[{"internalType":"address","name":"","type":"address"}],"name":"subscriptions","outputs":[{"internalType":"enum ChatGPTSubscription.SubscriptionTier","name":"tier","type":"uint8"},{"internalType":"uint256","name":"startTime","type":"uint256"},{"internalType":"uint256","name":"endTime","type":"uint256"},{"internalType":"uint256","name":"lastPayment","type":"uint256"},{"internalType":"bool","name":"isActive","type":"bool"},{"internalType":"bool","name":"autoRenew","type":"bool"}],"stateMutability":"view","type":"function"},{"inputs":[{"internalType":"enum ChatGPTSubscription.SubscriptionTier","name":"","type":"uint8"}],"name":"tierPricing","outputs":[{"internalType":"uint256","name":"monthlyPrice","type":"uint256"},{"internalType":"uint256","name":"yearlyPrice","type":"uint256"},{"internalType":"uint256","name":"maxQueries","type":"uint256"},{"internalType":"bool","name":"unlimited","type":"bool"},{"internalType":"string","name":"features","type":"string"}],"stateMutability":"view","type":"function"},{"inputs":[],"name":"totalRevenue","outputs":[{"internalType":"uint256","name":"","type":"uint256"}],"stateMutability":"view","type":"function"},{"inputs":[],"name":"totalSubscribers","outputs":[{"internalType":"uint256","name":"","type":"uint256"}],"stateMutability":"view","type":"function"},{"inputs":[{"internalType":"address","name":"newOwner","type":"address"}],"name":"transferOwnership","outputs":[],"stateMutability":"nonpayable","type":"function"},{"inputs":[],"name":"treasury","outputs":[{"internalType":"address","name":"","type":"address"}],"stateMutability":"view","type":"function"},{"inputs":[],"name":"unpause","outputs":[],"stateMutability":"nonpayable","type":"function"},{"inputs":[{"internalType":"uint256","name":"_newFee","type":"uint256"}],"name":"updateProtocolFee","outputs":[],"stateMutability":"nonpayable","type":"function"},{"inputs":[{"internalType":"enum ChatGPTSubscription.SubscriptionTier","name":"_tier","type":"uint8"},{"internalType":"uint256","name":"_monthlyPrice","type":"uint256"},{"internalType":"uint256","name":"_yearlyPrice","type":"uint256"},{"internalType":"uint256","name":"_maxQueries","type":"uint256"},{"internalType":"bool","name":"_unlimited","type":"bool"},{"internalType":"string","name":"_features","type":"string"}],"name":"updateTierPricing","outputs":[],"stateMutability":"nonpayable","type":"function"},{"inputs":[{"internalType":"address","name":"_newTreasury","type":"address"}],"name":"updateTreasury","outputs":[],"stateMutability":"nonpayable","type":"function"},{"inputs":[{"internalType":"address","name":"_user","type":"address"}],"name":"useQuery","outputs":[],"stateMutability":"nonpayable","type":"function"},{"stateMutability":"payable","type":"receive"}],"evm":{"bytecode":{"linkReferences":{},"object":"608034620006fb57601f620020a038819003918201601f19168301916001600160401b038311848410176200052d57808492602094604052833981010312620006fb57516001600160a01b0380821691829003620006fb57600160005560015490339082167f8be0079c531659141344cd1fd0a4f28419497f9722a3daafe3b4186f6b6457e0600080a36001600160a81b0319163360ff60a01b19161760015560fa600855600780546001600160a01b031916919091179055620000c262000700565b662386f26fc1000081526020810167016345785d8a00008152604082016103e88152606083019060008252604051926040840184811060018060401b038211176200052d57604052601e84527f426173696320414920636861742c206c696d697465642071756572696573000060208501526080850193845260016000526004602052604060002094518555516001850155516002840155600383019051151560ff801983541691161790555180519060018060401b0382116200052d576004830154600181811c91168015620006f0575b60208210146200050c57601f8111620006a0575b50602090601f83116001146200062b5760049291600091836200061f575b50508160011b916000199060031b1c1916179101555b620001e662000700565b6658d15e1762800081526703782dace9d9000060208201526127106040820152600060608201526200021762000720565b602c81527f416476616e6365642041492c207072696f7269747920737570706f72742c206860208201526b6967686572206c696d69747360a01b60408201526080820152600260005260046020526080604060002091805183556020810151600184015560408101516002840155600383016060820151151560ff80198354169116179055015180519060018060401b0382116200052d576004830154600181811c9116801562000614575b60208210146200050c57601f8111620005c4575b50602090601f83116001146200054f57600492916000918362000543575b50508160011b916000199060031b1c1916179101555b6200031562000700565b67016345785d8a00008152670de0b6b3a7640000602082015260006040820152600160608201526200034662000720565b602e81527f556e6c696d6974656420717565726965732c20415049206163636573732c206360208201526d7573746f6d20747261696e696e6760901b6040820152608082015260036000526004602052608060046040600020835181556020840151600182015560408401516002820155600381016060850151151560ff801983541691161790550191015190815160018060401b0381116200052d578154600181811c9116801562000522575b60208210146200050c57601f8111620004bf575b50602092601f82116001146200045657928192936000926200044a575b50508160011b916000199060031b1c19161790555b60405161195f9081620007418239f35b01519050388062000425565b601f198216938360005260206000209160005b868110620004a657508360019596106200048c575b505050811b0190556200043a565b015160001960f88460031b161c191690553880806200047e565b9192602060018192868501518155019401920162000469565b826000526020600020601f830160051c8101916020841062000501575b601f0160051c01905b818110620004f4575062000408565b60008155600101620004e5565b9091508190620004dc565b634e487b7160e01b600052602260045260246000fd5b90607f1690620003f4565b634e487b7160e01b600052604160045260246000fd5b015190503880620002f5565b906004840160005260206000209160005b601f1985168110620005ab5750918391600193600495601f1981161062000591575b505050811b019101556200030b565b015160001960f88460031b161c1916905538808062000582565b9192602060018192868501518155019401920162000560565b600484016000526020600020601f840160051c8101916020851062000609575b601f0160051c01905b818110620005fc5750620002d7565b60008155600101620005ed565b9091508190620005e4565b90607f1690620002c3565b015190503880620001c6565b906004840160005260206000209160005b601f1985168110620006875750918391600193600495601f198116106200066d575b505050811b01910155620001dc565b015160001960f88460031b161c191690553880806200065e565b919260206001819286850151815501940192016200063c565b600484016000526020600020601f840160051c81019160208510620006e5575b601f0160051c01905b818110620006d85750620001a8565b60008155600101620006c9565b9091508190620006c0565b90607f169062000194565b600080fd5b6040519060a082016001600160401b038111838210176200052d57604052565b60405190606082016001600160401b038111838210176200052d5760405256fe60806040908082526004908136101561005a575b50361561001f57600080fd5b6020606492519162461bcd60e51b835282015260166024820152752ab9b29039bab139b1b934b13290333ab731ba34b7b760511b6044820152fd5b600090813560e01c9081630dc0ba72146113445750806315e2475f1461132557806324e9edb0146112cb578063272f896c1461123f5780632a891534146112215780632c4b2ff1146111e65780633f4ba83a146111495780634256dd78146110e7578063594548971461108a5780635c975abb1461106357806361d027b31461103a57806370f0523214610e87578063715018a614610e2a5780637b8c448b14610df15780637c06d00014610dbf5780637c6abc7a14610b2a5780637f51bb1f14610aa15780638456cb5914610a405780638da5cb5b14610a17578063b0e194761461068b578063b0e21e8a1461066c578063bd6fbbd114610519578063bebe4a57146104db578063bf2d9e0b146104bc578063d474f84f146103de578063d73792a9146103c1578063db2e21bc1461033a578063dfe6b5d614610308578063f046395a146102835763f2fde38b0361001357913461027f57602036600319011261027f576001600160a01b0382358181169391929084900361027b576101df611552565b8315610229575050600154826bffffffffffffffffffffffff60a01b821617600155167f8be0079c531659141344cd1fd0a4f28419497f9722a3daafe3b4186f6b6457e08380a380f35b906020608492519162461bcd60e51b8352820152602660248201527f4f776e61626c653a206e6577206f776e657220697320746865207a65726f206160448201526564647265737360d01b6064820152fd5b8480fd5b8280fd5b50913461027f57602036600319011261027f5781356001600160a01b038116908190036103045790808460ff9360c0965260026020522082815416936001820154926002830154916003840154930154936102e082518098611545565b602087015285015260608401528181161515608084015260081c16151560a0820152f35b8380fd5b5082346103365781600319360112610336576060906005549060065490479181519384526020840152820152f35b5080fd5b5091903461027f578260031936011261027f57610355611552565b47908115610387575060075483918291829182916001600160a01b031682f11561037d575080f35b51903d90823e3d90fd5b606490602084519162461bcd60e51b835282015260146024820152734e6f2066756e647320746f20776974686472617760601b6044820152fd5b508234610336578160031936011261033657602090516127108152f35b5090346103365760203660031901126103365780356001600160a01b038116808203610304578352600260205283832084519061041a82611461565b60ff81541694848610156104a9575060c09585835260ff60a060018401549687602087015260028501549485858801526003810154606088015201549482861615156080820152019360081c161515835261048161047785611630565b935115159461180d565b9461048e82518098611545565b602087015285015215156060840152608083015260a0820152f35b634e487b7160e01b815260218552602490fd5b5082346103365781600319360112610336576020906005549051908152f35b5091903461027f57602036600319011261027f5735916001600160a01b0383168303610516575061050d602092611630565b90519015158152f35b80fd5b5082346103365760203660031901126103365782356001600160a01b038116919082900361027f57610549611552565b818352600260205280832060ff8582015460081c1615610629576002810154906201518042018042116106165782116105db5760ff9054169062278d0081018091116105c8579082916105bf7f1af2f2c576585623f24cdd3d12995de86e6d2ef881e797dab79b51bc71fb0a9a94518093611545565b6020820152a280f35b634e487b7160e01b855260118652602485fd5b825162461bcd60e51b81526020818801526015602482015274151bdbc819585c9b1e48199bdc881c995b995dd85b605a1b6044820152606490fd5b634e487b7160e01b865260118752602486fd5b815162461bcd60e51b8152602081870152601860248201527f4175746f2d72656e6577616c206e6f7420656e61626c656400000000000000006044820152606490fd5b5082346103365781600319360112610336576020906008549051908152f35b508260603660031901126103365782358381101561027f57602493843591821515830361027b5760443590811515809203610a1357600292838754146109d1578387556106d66115e9565b81156109a057341561096b576106eb826113c6565b9386516106f78161142f565b8554815260018601549061072b84602098898401948552858101548c85015260ff600382015416151560608501520161149f565b60808201528715610962575051955b15610958576301e13380935b86341061091f5733895281865287892083810192835460ff811680610913575b156108d6575081016107798782546115aa565b90555b60034291015561ff0082549160081b169061ff0019161790553387526003845286868120556008549081340291348304036108c45750869750956107c661271082979804346115dc565b6107d2816005546115aa565b60055580471015610889575b50508551610827926107f08284611545565b848201527fb32d0ee4f7c649974c4703f12139c6581d4dfc9df7fcbe3ebc75de386319075b873392a2855192348452830190611545565b7f501bc9aec8d070365c3dee92fef5587b5486a9515c81b44af5e179efbaa7eed1843392a280341161085c575b506001815580f35b81806108698193346115dc565b818115610880575b3390f11561037d578181610854565b506108fc610871565b600754829182918291906001600160a01b03168282156108bb575bf1156108b15784886107de565b85513d86823e3d90fd5b506108fc6108a4565b634e487b7160e01b8852601190528787fd5b9060019160ff19918285541660ff8a1617855542848601556108f88a426115aa565b908501551617835561090b6006546115cd565b60065561077c565b50818301544210610766565b875162461bcd60e51b81528084018790526014818c015273125b9cdd59999a58da595b9d081c185e5b595b9d60621b6044820152606490fd5b62278d0093610746565b9050519561073a565b606490601089602089519362461bcd60e51b85528401528201526f14185e5b595b9d081c995c5d5a5c995960821b6044820152fd5b606490600c89602089519362461bcd60e51b85528401528201526b24b73b30b634b2103a34b2b960a11b6044820152fd5b606490601f89602089519362461bcd60e51b85528401528201527f5265656e7472616e637947756172643a207265656e7472616e742063616c6c006044820152fd5b8580fd5b50823461033657816003193601126103365760015490516001600160a01b039091168152602090f35b50823461033657816003193601126103365760207f62e78cea01bee320cd4e420270b5ea74000d11b0c9f74754ebdbfc544b05a25891610a7e611552565b610a866115e9565b6001805460ff60a01b1916600160a01b17905551338152a180f35b5091903461027f57602036600319011261027f5780356001600160a01b038116929083900361030457610ad2611552565b8215610af55750506bffffffffffffffffffffffff60a01b600754161760075580f35b906020606492519162461bcd60e51b8352820152600f60248201526e496e76616c6964206164647265737360881b6044820152fd5b5091903461027f5760c036600319011261027f5780359181831015610304576024356044359260843590811515809203610dbb5767ffffffffffffffff60a435818111610db75736602382011215610db7578083013593828511610da457865193602095601f1992610ba38885601f850116018861147d565b8187528c366024848801011161051657888385948f98602401838c013789010152610bcc611552565b895190610bd88261142f565b8982528882018c8152610c008c840197606435895260608501938452608085019a8b526113c6565b92518355519560019687840155516002830155600382019051151560ff80198354169116179055019451908151948511610d915750610c3f85546113f5565b601f8111610d4b575b508a8692601f8611600114610cc1575093606099979593819382937f52411122af13cde1f5bb4cd1735d2d3de551b3e1516262dfb8a18c730246b98c9d9b999794610cb6575b50501b916000199060031b1c19161790555b610cac83518096611545565b840152820152a180f35b015192503880610c8e565b868d52878d209495949392915084168c5b818110610d365750917f52411122af13cde1f5bb4cd1735d2d3de551b3e1516262dfb8a18c730246b98c9b99979593918560609c9a98969410610d1d575b505050811b019055610ca0565b015160001960f88460031b161c19169055388080610d10565b82840151855593860193928801928801610cd2565b858c52868c20601f860160051c810191888710610d87575b601f0160051c019084905b828110610d7c575050610c48565b8d8155018490610d6e565b9091508190610d63565b634e487b7160e01b8c526041905260248bfd5b634e487b7160e01b8a526041845260248afd5b8880fd5b8680fd5b5091903461027f57602036600319011261027f5735916001600160a01b0383168303610516575061050d6020926116bd565b5091903461027f57602036600319011261027f5735916001600160a01b03831683036105165750610e2360209261180d565b9051908152f35b5034610516578060031936011261051657610e43611552565b600180546001600160a01b0319811690915581906001600160a01b03167f8be0079c531659141344cd1fd0a4f28419497f9722a3daafe3b4186f6b6457e08280a380f35b5091903461027f576020806003193601126103045781356001600160a01b0381169390848103610a1357610ed390610ebd611552565b610ece610ec982611630565b6117c8565b6116bd565b156110025783855260028252808520815190610eee82611461565b60ff81541685811015610fef579160ff86610f4193610f469584526001810154888501526002810154878501526003810154606085015201548181161515608084015260081c16151560a08201526116b0565b6113c6565b8151610f518161142f565b815481526001820154848201526080610f8760028401549685840197885260ff600386015416946060850195151586520161149f565b9101525115610f94578480f35b610fe17ff84b6eb413488a833f4eb27cc4f86718538fe9fa9e1390607f0b6a256fa99e659385875260038452828720610fcd81546115cd565b9055518587526003845282872054906115dc565b9051908152a2388080808480f35b634e487b7160e01b885260218652602488fd5b5162461bcd60e51b8152918201526014602482015273145d595c9e481b1a5b5a5d08195e18d95959195960621b604482015260649150fd5b50823461033657816003193601126103365760075490516001600160a01b039091168152602090f35b50823461033657816003193601126103365760209060ff60015460a01c1690519015158152f35b50829034610516576020366003190112610516578235908382101561051657506110b66110e3916113c6565b918254926001810154946110d860028301549160ff600385015416930161149f565b925195869586611362565b0390f35b5091903461027f57602036600319011261027f57803591611106611552565b6103e8831161111757505060085580f35b906020606492519162461bcd60e51b8352820152600c60248201526b08ccaca40e8dede40d0d2ced60a31b6044820152fd5b5091903461027f578260031936011261027f57611164611552565b6001549060ff8260a01c16156111ac575060ff60a01b1916600155513381527f5db9ee0a495bf2e6ff9c91a7834c1ba4fdd244a5e8aa4e537bd38aeae4b073aa90602090a180f35b606490602084519162461bcd60e51b8352820152601460248201527314185d5cd8589b194e881b9bdd081c185d5cd95960621b6044820152fd5b5091903461027f57602036600319011261027f57356001600160a01b0381169081900361027f57828291602094526003845220549051908152f35b5082346103365781600319360112610336576020905162278d008152f35b508290346105165760203660031901126105165782359083821015610516575061126b6110e3916113c6565b918051906112788261142f565b83548252600184015493602083019485526112b060028201549683850197885260ff600384015416926060860193151584520161149f565b92836080820152519451955190511515915195869586611362565b50913461027f578260031936011261027f57338352600260205282200180546112f660ff82166117c8565b61ff0019169055337f71215198e3f86c24dc3af6d0d7f84d0095e5ee736aa56daf9927fae51935e95d8280a280f35b5082346103365781600319360112610336576020906006549051908152f35b905034610336578160031936011261033657806301e1338060209252f35b93919594929084526020958685015260408401521515606083015260a060808301528051908160a084015260005b8281106113b257505060c09293506000838284010152601f8019910116010190565b81810186015184820160c001528501611390565b60048110156113df576000526004602052604060002090565b634e487b7160e01b600052602160045260246000fd5b90600182811c92168015611425575b602083101461140f57565b634e487b7160e01b600052602260045260246000fd5b91607f1691611404565b60a0810190811067ffffffffffffffff82111761144b57604052565b634e487b7160e01b600052604160045260246000fd5b60c0810190811067ffffffffffffffff82111761144b57604052565b90601f8019910116810190811067ffffffffffffffff82111761144b57604052565b90604051918260008254926114b3846113f5565b90818452600194858116908160001461152257506001146114df575b50506114dd9250038361147d565b565b9093915060005260209081600020936000915b81831061150a5750506114dd935082010138806114cf565b855488840185015294850194879450918301916114f2565b9150506114dd94506020925060ff191682840152151560051b82010138806114cf565b9060048210156113df5752565b6001546001600160a01b0316330361156657565b606460405162461bcd60e51b815260206004820152602060248201527f4f776e61626c653a2063616c6c6572206973206e6f7420746865206f776e65726044820152fd5b919082018092116115b757565b634e487b7160e01b600052601160045260246000fd5b60001981146115b75760010190565b919082039182116115b757565b60ff60015460a01c166115f857565b60405162461bcd60e51b815260206004820152601060248201526f14185d5cd8589b194e881c185d5cd95960821b6044820152606490fd5b60018060a01b0316600052600260205260406000206040519061165282611461565b60ff81541660048110156113df5782526001810154602083015260046002820154918260408501526003810154606085015201549160a060ff80851615159485608085015260081c161515910152816116a9575090565b9050421090565b5160048110156113df5790565b6116c681611630565b156117c2576001600160a01b03166000818152600260205260408082208151919291906116f282611461565b60ff81541660048110156117ae579160ff6004610f4193611748958452600181015460208501526002810154888501526003810154606085015201548181161515608084015260081c16151560a08201526116b0565b928251936117558561142f565b8054855260018101546020860152600281015494848101958652608061178e600460ff600386015416946060850195151586520161149f565b910152516117a55781526003602052205490511190565b50505050600190565b634e487b7160e01b84526021600452602484fd5b50600090565b156117cf57565b60405162461bcd60e51b815260206004820152601660248201527527379030b1ba34bb329039bab139b1b934b83a34b7b760511b6044820152606490fd5b61181681611630565b156117c2576001600160a01b031660008181526002602052604080822081519293929061184282611461565b60ff8154166004811015611915579160ff6004610f4193611898958452600181015460208501526002810154878501526003810154606085015201548181161515608084015260081c16151560a08201526116b0565b918151926118a58461142f565b805484526001810154602085015260028101549383810194855260806118de600460ff600386015416946060850195151586520161149f565b9101525161190b578352600360205282205490518082106118fe57505090565b61190892506115dc565b90565b5050505060001990565b634e487b7160e01b86526021600452602486fdfea26469706673582212207145262305f9a3828c2d33362e3d8848d88206d69926f975a5bf7e736f90ddbd64736f6c63430008130033","opcodes":"PUSH1 0x80 CALLVALUE PUSH3 0x6FB JUMPI PUSH1 0x1F PUSH3 0x20A0 CODESIZE DUP2 SWAP1 SUB SWAP2 DUP3 ADD PUSH1 0x1F NOT AND DUP4 ADD SWAP2 PUSH1 0x1 PUSH1 0x1 PUSH1 0x40 SHL SUB DUP4 GT DUP5 DUP5 LT OR PUSH3 0x52D JUMPI DUP1 DUP5 SWAP3 PUSH1 0x20 SWAP5 PUSH1 0x40 MSTORE DUP4 CODECOPY DUP2 ADD SUB SLT PUSH3 0x6FB JUMPI MLOAD PUSH1 0x1 PUSH1 0x1 PUSH1 0xA0 SHL SUB DUP1 DUP3 AND SWAP2 DUP3 SWAP1 SUB PUSH3 0x6FB JUMPI PUSH1 0x1 PUSH1 0x0 SSTORE PUSH1 0x1 SLOAD SWAP1 CALLER SWAP1 DUP3 AND PUSH32 0x8BE0079C531659141344CD1FD0A4F28419497F9722A3DAAFE3B4186F6B6457E0 PUSH1 0x0 DUP1 LOG3 PUSH1 0x1 PUSH1 0x1 PUSH1 0xA8 SHL SUB NOT AND CALLER PUSH1 0xFF PUSH1 0xA0 SHL NOT AND OR PUSH1 0x1 SSTORE PUSH1 0xFA PUSH1 0x8 SSTORE PUSH1 0x7 DUP1 SLOAD PUSH1 0x1 PUSH1 0x1 PUSH1 0xA0 SHL SUB NOT AND SWAP2 SWAP1 SWAP2 OR SWAP1 SSTORE PUSH3 0xC2 PUSH3 0x700 JUMP JUMPDEST PUSH7 0x2386F26FC10000 DUP2 MSTORE PUSH1 0x20 DUP2 ADD PUSH8 0x16345785D8A0000 DUP2 MSTORE PUSH1 0x40 DUP3 ADD PUSH2 0x3E8 DUP2 MSTORE PUSH1 0x60 DUP4 ADD SWAP1 PUSH1 0x0 DUP3 MSTORE PUSH1 0x40 MLOAD SWAP3 PUSH1 0x40 DUP5 ADD DUP5 DUP2 LT PUSH1 0x1 DUP1 PUSH1 0x40 SHL SUB DUP3 GT OR PUSH3 0x52D JUMPI PUSH1 0x40 MSTORE PUSH1 0x1E DUP5 MSTORE PUSH32 0x426173696320414920636861742C206C696D6974656420717565726965730000 PUSH1 0x20 DUP6 ADD MSTORE PUSH1 0x80 DUP6 ADD SWAP4 DUP5 MSTORE PUSH1 0x1 PUSH1 0x0 MSTORE PUSH1 0x4 PUSH1 0x20 MSTORE PUSH1 0x40 PUSH1 0x0 KECCAK256 SWAP5 MLOAD DUP6 SSTORE MLOAD PUSH1 0x1 DUP6 ADD SSTORE MLOAD PUSH1 0x2 DUP5 ADD SSTORE PUSH1 0x3 DUP4 ADD SWAP1 MLOAD ISZERO ISZERO PUSH1 0xFF DUP1 NOT DUP4 SLOAD AND SWAP2 AND OR SWAP1 SSTORE MLOAD DUP1 MLOAD SWAP1 PUSH1 0x1 DUP1 PUSH1 0x40 SHL SUB DUP3 GT PUSH3 0x52D JUMPI PUSH1 0x4 DUP4 ADD SLOAD PUSH1 0x1 DUP2 DUP2 SHR SWAP2 AND DUP1 ISZERO PUSH3 0x6F0 JUMPI JUMPDEST PUSH1 0x20 DUP3 LT EQ PUSH3 0x50C JUMPI PUSH1 0x1F DUP2 GT PUSH3 0x6A0 JUMPI JUMPDEST POP PUSH1 0x20 SWAP1 PUSH1 0x1F DUP4 GT PUSH1 0x1 EQ PUSH3 0x62B JUMPI PUSH1 0x4 SWAP3 SWAP2 PUSH1 0x0 SWAP2 DUP4 PUSH3 0x61F JUMPI JUMPDEST POP POP DUP2 PUSH1 0x1 SHL SWAP2 PUSH1 0x0 NOT SWAP1 PUSH1 0x3 SHL SHR NOT AND OR SWAP2 ADD SSTORE JUMPDEST PUSH3 0x1E6 PUSH3 0x700 JUMP JUMPDEST PUSH7 0x58D15E17628000 DUP2 MSTORE PUSH8 0x3782DACE9D90000 PUSH1 0x20 DUP3 ADD MSTORE PUSH2 0x2710 PUSH1 0x40 DUP3 ADD MSTORE PUSH1 0x0 PUSH1 0x60 DUP3 ADD MSTORE PUSH3 0x217 PUSH3 0x720 JUMP JUMPDEST PUSH1 0x2C DUP2 MSTORE PUSH32 0x416476616E6365642041492C207072696F7269747920737570706F72742C2068 PUSH1 0x20 DUP3 ADD MSTORE PUSH12 0x6967686572206C696D697473 PUSH1 0xA0 SHL PUSH1 0x40 DUP3 ADD MSTORE PUSH1 0x80 DUP3 ADD MSTORE PUSH1 0x2 PUSH1 0x0 MSTORE PUSH1 0x4 PUSH1 0x20 MSTORE PUSH1 0x80 PUSH1 0x40 PUSH1 0x0 KECCAK256 SWAP2 DUP1 MLOAD DUP4 SSTORE PUSH1 0x20 DUP2 ADD MLOAD PUSH1 0x1 DUP5 ADD SSTORE PUSH1 0x40 DUP2 ADD MLOAD PUSH1 0x2 DUP5 ADD SSTORE PUSH1 0x3 DUP4 ADD PUSH1 0x60 DUP3 ADD MLOAD ISZERO ISZERO PUSH1 0xFF DUP1 NOT DUP4 SLOAD AND SWAP2 AND OR SWAP1 SSTORE ADD MLOAD DUP1 MLOAD SWAP1 PUSH1 0x1 DUP1 PUSH1 0x40 SHL SUB DUP3 GT PUSH3 0x52D JUMPI PUSH1 0x4 DUP4 ADD SLOAD PUSH1 0x1 DUP2 DUP2 SHR SWAP2 AND DUP1 ISZERO PUSH3 0x614 JUMPI JUMPDEST PUSH1 0x20 DUP3 LT EQ PUSH3 0x50C JUMPI PUSH1 0x1F DUP2 GT PUSH3 0x5C4 JUMPI JUMPDEST POP PUSH1 0x20 SWAP1 PUSH1 0x1F DUP4 GT PUSH1 0x1 EQ PUSH3 0x54F JUMPI PUSH1 0x4 SWAP3 SWAP2 PUSH1 0x0 SWAP2 DUP4 PUSH3 0x543 JUMPI JUMPDEST POP POP DUP2 PUSH1 0x1 SHL SWAP2 PUSH1 0x0 NOT SWAP1 PUSH1 0x3 SHL SHR NOT AND OR SWAP2 ADD SSTORE JUMPDEST PUSH3 0x315 PUSH3 0x700 JUMP JUMPDEST PUSH8 0x16345785D8A0000 DUP2 MSTORE PUSH8 0xDE0B6B3A7640000 PUSH1 0x20 DUP3 ADD MSTORE PUSH1 0x0 PUSH1 0x40 DUP3 ADD MSTORE PUSH1 0x1 PUSH1 0x60 DUP3 ADD MSTORE PUSH3 0x346 PUSH3 0x720 JUMP JUMPDEST PUSH1 0x2E DUP2 MSTORE PUSH32 0x556E6C696D6974656420717565726965732C20415049206163636573732C2063 PUSH1 0x20 DUP3 ADD MSTORE PUSH14 0x7573746F6D20747261696E696E67 PUSH1 0x90 SHL PUSH1 0x40 DUP3 ADD MSTORE PUSH1 0x80 DUP3 ADD MSTORE PUSH1 0x3 PUSH1 0x0 MSTORE PUSH1 0x4 PUSH1 0x20 MSTORE PUSH1 0x80 PUSH1 0x4 PUSH1 0x40 PUSH1 0x0 KECCAK256 DUP4 MLOAD DUP2 SSTORE PUSH1 0x20 DUP5 ADD MLOAD PUSH1 0x1 DUP3 ADD SSTORE PUSH1 0x40 DUP5 ADD MLOAD PUSH1 0x2 DUP3 ADD SSTORE PUSH1 0x3 DUP2 ADD PUSH1 0x60 DUP6 ADD MLOAD ISZERO ISZERO PUSH1 0xFF DUP1 NOT DUP4 SLOAD AND SWAP2 AND OR SWAP1 SSTORE ADD SWAP2 ADD MLOAD SWAP1 DUP2 MLOAD PUSH1 0x1 DUP1 PUSH1 0x40 SHL SUB DUP2 GT PUSH3 0x52D JUMPI DUP2 SLOAD PUSH1 0x1 DUP2 DUP2 SHR SWAP2 AND DUP1 ISZERO PUSH3 0x522 JUMPI JUMPDEST PUSH1 0x20 DUP3 LT EQ PUSH3 0x50C JUMPI PUSH1 0x1F DUP2 GT PUSH3 0x4BF JUMPI JUMPDEST POP PUSH1 0x20 SWAP3 PUSH1 0x1F DUP3 GT PUSH1 0x1 EQ PUSH3 0x456 JUMPI SWAP3 DUP2 SWAP3 SWAP4 PUSH1 0x0 SWAP3 PUSH3 0x44A JUMPI JUMPDEST POP POP DUP2 PUSH1 0x1 SHL SWAP2 PUSH1 0x0 NOT SWAP1 PUSH1 0x3 SHL SHR NOT AND OR SWAP1 SSTORE JUMPDEST PUSH1 0x40 MLOAD PUSH2 0x195F SWAP1 DUP2 PUSH3 0x741 DUP3 CODECOPY RETURN JUMPDEST ADD MLOAD SWAP1 POP CODESIZE DUP1 PUSH3 0x425 JUMP JUMPDEST PUSH1 0x1F NOT DUP3 AND SWAP4 DUP4 PUSH1 0x0 MSTORE PUSH1 0x20 PUSH1 0x0 KECCAK256 SWAP2 PUSH1 0x0 JUMPDEST DUP7 DUP2 LT PUSH3 0x4A6 JUMPI POP DUP4 PUSH1 0x1 SWAP6 SWAP7 LT PUSH3 0x48C JUMPI JUMPDEST POP POP POP DUP2 SHL ADD SWAP1 SSTORE PUSH3 0x43A JUMP JUMPDEST ADD MLOAD PUSH1 0x0 NOT PUSH1 0xF8 DUP5 PUSH1 0x3 SHL AND SHR NOT AND SWAP1 SSTORE CODESIZE DUP1 DUP1 PUSH3 0x47E JUMP JUMPDEST SWAP2 SWAP3 PUSH1 0x20 PUSH1 0x1 DUP2 SWAP3 DUP7 DUP6 ADD MLOAD DUP2 SSTORE ADD SWAP5 ADD SWAP3 ADD PUSH3 0x469 JUMP JUMPDEST DUP3 PUSH1 0x0 MSTORE PUSH1 0x20 PUSH1 0x0 KECCAK256 PUSH1 0x1F DUP4 ADD PUSH1 0x5 SHR DUP2 ADD SWAP2 PUSH1 0x20 DUP5 LT PUSH3 0x501 JUMPI JUMPDEST PUSH1 0x1F ADD PUSH1 0x5 SHR ADD SWAP1 JUMPDEST DUP2 DUP2 LT PUSH3 0x4F4 JUMPI POP PUSH3 0x408 JUMP JUMPDEST PUSH1 0x0 DUP2 SSTORE PUSH1 0x1 ADD PUSH3 0x4E5 JUMP JUMPDEST SWAP1 SWAP2 POP DUP2 SWAP1 PUSH3 0x4DC JUMP JUMPDEST PUSH4 0x4E487B71 PUSH1 0xE0 SHL PUSH1 0x0 MSTORE PUSH1 0x22 PUSH1 0x4 MSTORE PUSH1 0x24 PUSH1 0x0 REVERT JUMPDEST SWAP1 PUSH1 0x7F AND SWAP1 PUSH3 0x3F4 JUMP JUMPDEST PUSH4 0x4E487B71 PUSH1 0xE0 SHL PUSH1 0x0 MSTORE PUSH1 0x41 PUSH1 0x4 MSTORE PUSH1 0x24 PUSH1 0x0 REVERT JUMPDEST ADD MLOAD SWAP1 POP CODESIZE DUP1 PUSH3 0x2F5 JUMP JUMPDEST SWAP1 PUSH1 0x4 DUP5 ADD PUSH1 0x0 MSTORE PUSH1 0x20 PUSH1 0x0 KECCAK256 SWAP2 PUSH1 0x0 JUMPDEST PUSH1 0x1F NOT DUP6 AND DUP2 LT PUSH3 0x5AB JUMPI POP SWAP2 DUP4 SWAP2 PUSH1 0x1 SWAP4 PUSH1 0x4 SWAP6 PUSH1 0x1F NOT DUP2 AND LT PUSH3 0x591 JUMPI JUMPDEST POP POP POP DUP2 SHL ADD SWAP2 ADD SSTORE PUSH3 0x30B JUMP JUMPDEST ADD MLOAD PUSH1 0x0 NOT PUSH1 0xF8 DUP5 PUSH1 0x3 SHL AND SHR NOT AND SWAP1 SSTORE CODESIZE DUP1 DUP1 PUSH3 0x582 JUMP JUMPDEST SWAP2 SWAP3 PUSH1 0x20 PUSH1 0x1 DUP2 SWAP3 DUP7 DUP6 ADD MLOAD DUP2 SSTORE ADD SWAP5 ADD SWAP3 ADD PUSH3 0x560 JUMP JUMPDEST PUSH1 0x4 DUP5 ADD PUSH1 0x0 MSTORE PUSH1 0x20 PUSH1 0x0 KECCAK256 PUSH1 0x1F DUP5 ADD PUSH1 0x5 SHR DUP2 ADD SWAP2 PUSH1 0x20 DUP6 LT PUSH3 0x609 JUMPI JUMPDEST PUSH1 0x1F ADD PUSH1 0x5 SHR ADD SWAP1 JUMPDEST DUP2 DUP2 LT PUSH3 0x5FC JUMPI POP PUSH3 0x2D7 JUMP JUMPDEST PUSH1 0x0 DUP2 SSTORE PUSH1 0x1 ADD PUSH3 0x5ED JUMP JUMPDEST SWAP1 SWAP2 POP DUP2 SWAP1 PUSH3 0x5E4 JUMP JUMPDEST SWAP1 PUSH1 0x7F AND SWAP1 PUSH3 0x2C3 JUMP JUMPDEST ADD MLOAD SWAP1 POP CODESIZE DUP1 PUSH3 0x1C6 JUMP JUMPDEST SWAP1 PUSH1 0x4 DUP5 ADD PUSH1 0x0 MSTORE PUSH1 0x20 PUSH1 0x0 KECCAK256 SWAP2 PUSH1 0x0 JUMPDEST PUSH1 0x1F NOT DUP6 AND DUP2 LT PUSH3 0x687 JUMPI POP SWAP2 DUP4 SWAP2 PUSH1 0x1 SWAP4 PUSH1 0x4 SWAP6 PUSH1 0x1F NOT DUP2 AND LT PUSH3 0x66D JUMPI JUMPDEST POP POP POP DUP2 SHL ADD SWAP2 ADD SSTORE PUSH3 0x1DC JUMP JUMPDEST ADD MLOAD PUSH1 0x0 NOT PUSH1 0xF8 DUP5 PUSH1 0x3 SHL AND SHR NOT AND SWAP1 SSTORE CODESIZE DUP1 DUP1 PUSH3 0x65E JUMP JUMPDEST SWAP2 SWAP3 PUSH1 0x20 PUSH1 0x1 DUP2 SWAP3 DUP7 DUP6 ADD MLOAD DUP2 SSTORE ADD SWAP5 ADD SWAP3 ADD PUSH3 0x63C JUMP JUMPDEST PUSH1 0x4 DUP5 ADD PUSH1 0x0 MSTORE PUSH1 0x20 PUSH1 0x0 KECCAK256 PUSH1 0x1F DUP5 ADD PUSH1 0x5 SHR DUP2 ADD SWAP2 PUSH1 0x20 DUP6 LT PUSH3 0x6E5 JUMPI JUMPDEST PUSH1 0x1F ADD PUSH1 0x5 SHR ADD SWAP1 JUMPDEST DUP2 DUP2 LT PUSH3 0x6D8 JUMPI POP PUSH3 0x1A8 JUMP JUMPDEST PUSH1 0x0 DUP2 SSTORE PUSH1 0x1 ADD PUSH3 0x6C9 JUMP JUMPDEST SWAP1 SWAP2 POP DUP2 SWAP1 PUSH3 0x6C0 JUMP JUMPDEST SWAP1 PUSH1 0x7F AND SWAP1 PUSH3 0x194 JUMP JUMPDEST PUSH1 0x0 DUP1 REVERT JUMPDEST PUSH1 0x40 MLOAD SWAP1 PUSH1 0xA0 DUP3 ADD PUSH1 0x1 PUSH1 0x1 PUSH1 0x40 SHL SUB DUP2 GT DUP4 DUP3 LT OR PUSH3 0x52D JUMPI PUSH1 0x40 MSTORE JUMP JUMPDEST PUSH1 0x40 MLOAD SWAP1 PUSH1 0x60 DUP3 ADD PUSH1 0x1 PUSH1 0x1 PUSH1 0x40 SHL SUB DUP2 GT DUP4 DUP3 LT OR PUSH3 0x52D JUMPI PUSH1 0x40 MSTORE JUMP INVALID PUSH1 0x80 PUSH1 0x40 SWAP1 DUP1 DUP3 MSTORE PUSH1 0x4 SWAP1 DUP2 CALLDATASIZE LT ISZERO PUSH2 0x5A JUMPI JUMPDEST POP CALLDATASIZE ISZERO PUSH2 0x1F JUMPI PUSH1 0x0 DUP1 REVERT JUMPDEST PUSH1 0x20 PUSH1 0x64 SWAP3 MLOAD SWAP2 PUSH3 0x461BCD PUSH1 0xE5 SHL DUP4 MSTORE DUP3 ADD MSTORE PUSH1 0x16 PUSH1 0x24 DUP3 ADD MSTORE PUSH22 0x2AB9B29039BAB139B1B934B13290333AB731BA34B7B7 PUSH1 0x51 SHL PUSH1 0x44 DUP3 ADD MSTORE REVERT JUMPDEST PUSH1 0x0 SWAP1 DUP2 CALLDATALOAD PUSH1 0xE0 SHR SWAP1 DUP2 PUSH4 0xDC0BA72 EQ PUSH2 0x1344 JUMPI POP DUP1 PUSH4 0x15E2475F EQ PUSH2 0x1325 JUMPI DUP1 PUSH4 0x24E9EDB0 EQ PUSH2 0x12CB JUMPI DUP1 PUSH4 0x272F896C EQ PUSH2 0x123F JUMPI DUP1 PUSH4 0x2A891534 EQ PUSH2 0x1221 JUMPI DUP1 PUSH4 0x2C4B2FF1 EQ PUSH2 0x11E6 JUMPI DUP1 PUSH4 0x3F4BA83A EQ PUSH2 0x1149 JUMPI DUP1 PUSH4 0x4256DD78 EQ PUSH2 0x10E7 JUMPI DUP1 PUSH4 0x59454897 EQ PUSH2 0x108A JUMPI DUP1 PUSH4 0x5C975ABB EQ PUSH2 0x1063 JUMPI DUP1 PUSH4 0x61D027B3 EQ PUSH2 0x103A JUMPI DUP1 PUSH4 0x70F05232 EQ PUSH2 0xE87 JUMPI DUP1 PUSH4 0x715018A6 EQ PUSH2 0xE2A JUMPI DUP1 PUSH4 0x7B8C448B EQ PUSH2 0xDF1 JUMPI DUP1 PUSH4 0x7C06D000 EQ PUSH2 0xDBF JUMPI DUP1 PUSH4 0x7C6ABC7A EQ PUSH2 0xB2A JUMPI DUP1 PUSH4 0x7F51BB1F EQ PUSH2 0xAA1 JUMPI DUP1 PUSH4 0x8456CB59 EQ PUSH2 0xA40 JUMPI DUP1 PUSH4 0x8DA5CB5B EQ PUSH2 0xA17 JUMPI DUP1 PUSH4 0xB0E19476 EQ PUSH2 0x68B JUMPI DUP1 PUSH4 0xB0E21E8A EQ PUSH2 0x66C JUMPI DUP1 PUSH4 0xBD6FBBD1 EQ PUSH2 0x519 JUMPI DUP1 PUSH4 0xBEBE4A57 EQ PUSH2 0x4DB JUMPI DUP1 PUSH4 0xBF2D9E0B EQ PUSH2 0x4BC JUMPI DUP1 PUSH4 0xD474F84F EQ PUSH2 0x3DE JUMPI DUP1 PUSH4 0xD73792A9 EQ PUSH2 0x3C1 JUMPI DUP1 PUSH4 0xDB2E21BC EQ PUSH2 0x33A JUMPI DUP1 PUSH4 0xDFE6B5D6 EQ PUSH2 0x308 JUMPI DUP1 PUSH4 0xF046395A EQ PUSH2 0x283 JUMPI PUSH4 0xF2FDE38B SUB PUSH2 0x13 JUMPI SWAP2 CALLVALUE PUSH2 0x27F JUMPI PUSH1 0x20 CALLDATASIZE PUSH1 0x3 NOT ADD SLT PUSH2 0x27F JUMPI PUSH1 0x1 PUSH1 0x1 PUSH1 0xA0 SHL SUB DUP3 CALLDATALOAD DUP2 DUP2 AND SWAP4 SWAP2 SWAP3 SWAP1 DUP5 SWAP1 SUB PUSH2 0x27B JUMPI PUSH2 0x1DF PUSH2 0x1552 JUMP JUMPDEST DUP4 ISZERO PUSH2 0x229 JUMPI POP POP PUSH1 0x1 SLOAD DUP3 PUSH12 0xFFFFFFFFFFFFFFFFFFFFFFFF PUSH1 0xA0 SHL DUP3 AND OR PUSH1 0x1 SSTORE AND PUSH32 0x8BE0079C531659141344CD1FD0A4F28419497F9722A3DAAFE3B4186F6B6457E0 DUP4 DUP1 LOG3 DUP1 RETURN JUMPDEST SWAP1 PUSH1 0x20 PUSH1 0x84 SWAP3 MLOAD SWAP2 PUSH3 0x461BCD PUSH1 0xE5 SHL DUP4 MSTORE DUP3 ADD MSTORE PUSH1 0x26 PUSH1 0x24 DUP3 ADD MSTORE PUSH32 0x4F776E61626C653A206E6577206F776E657220697320746865207A65726F2061 PUSH1 0x44 DUP3 ADD MSTORE PUSH6 0x646472657373 PUSH1 0xD0 SHL PUSH1 0x64 DUP3 ADD MSTORE REVERT JUMPDEST DUP5 DUP1 REVERT JUMPDEST DUP3 DUP1 REVERT JUMPDEST POP SWAP2 CALLVALUE PUSH2 0x27F JUMPI PUSH1 0x20 CALLDATASIZE PUSH1 0x3 NOT ADD SLT PUSH2 0x27F JUMPI DUP2 CALLDATALOAD PUSH1 0x1 PUSH1 0x1 PUSH1 0xA0 SHL SUB DUP2 AND SWAP1 DUP2 SWAP1 SUB PUSH2 0x304 JUMPI SWAP1 DUP1 DUP5 PUSH1 0xFF SWAP4 PUSH1 0xC0 SWAP7 MSTORE PUSH1 0x2 PUSH1 0x20 MSTORE KECCAK256 DUP3 DUP2 SLOAD AND SWAP4 PUSH1 0x1 DUP3 ADD SLOAD SWAP3 PUSH1 0x2 DUP4 ADD SLOAD SWAP2 PUSH1 0x3 DUP5 ADD SLOAD SWAP4 ADD SLOAD SWAP4 PUSH2 0x2E0 DUP3 MLOAD DUP1 SWAP9 PUSH2 0x1545 JUMP JUMPDEST PUSH1 0x20 DUP8 ADD MSTORE DUP6 ADD MSTORE PUSH1 0x60 DUP5 ADD MSTORE DUP2 DUP2 AND ISZERO ISZERO PUSH1 0x80 DUP5 ADD MSTORE PUSH1 0x8 SHR AND ISZERO ISZERO PUSH1 0xA0 DUP3 ADD MSTORE RETURN JUMPDEST DUP4 DUP1 REVERT JUMPDEST POP DUP3 CALLVALUE PUSH2 0x336 JUMPI DUP2 PUSH1 0x3 NOT CALLDATASIZE ADD SLT PUSH2 0x336 JUMPI PUSH1 0x60 SWAP1 PUSH1 0x5 SLOAD SWAP1 PUSH1 0x6 SLOAD SWAP1 SELFBALANCE SWAP2 DUP2 MLOAD SWAP4 DUP5 MSTORE PUSH1 0x20 DUP5 ADD MSTORE DUP3 ADD MSTORE RETURN JUMPDEST POP DUP1 REVERT JUMPDEST POP SWAP2 SWAP1 CALLVALUE PUSH2 0x27F JUMPI DUP3 PUSH1 0x3 NOT CALLDATASIZE ADD SLT PUSH2 0x27F JUMPI PUSH2 0x355 PUSH2 0x1552 JUMP JUMPDEST SELFBALANCE SWAP1 DUP2 ISZERO PUSH2 0x387 JUMPI POP PUSH1 0x7 SLOAD DUP4 SWAP2 DUP3 SWAP2 DUP3 SWAP2 DUP3 SWAP2 PUSH1 0x1 PUSH1 0x1 PUSH1 0xA0 SHL SUB AND DUP3 CALL ISZERO PUSH2 0x37D JUMPI POP DUP1 RETURN JUMPDEST MLOAD SWAP1 RETURNDATASIZE SWAP1 DUP3 RETURNDATACOPY RETURNDATASIZE SWAP1 REVERT JUMPDEST PUSH1 0x64 SWAP1 PUSH1 0x20 DUP5 MLOAD SWAP2 PUSH3 0x461BCD PUSH1 0xE5 SHL DUP4 MSTORE DUP3 ADD MSTORE PUSH1 0x14 PUSH1 0x24 DUP3 ADD MSTORE PUSH20 0x4E6F2066756E647320746F207769746864726177 PUSH1 0x60 SHL PUSH1 0x44 DUP3 ADD MSTORE REVERT JUMPDEST POP DUP3 CALLVALUE PUSH2 0x336 JUMPI DUP2 PUSH1 0x3 NOT CALLDATASIZE ADD SLT PUSH2 0x336 JUMPI PUSH1 0x20 SWAP1 MLOAD PUSH2 0x2710 DUP2 MSTORE RETURN JUMPDEST POP SWAP1 CALLVALUE PUSH2 0x336 JUMPI PUSH1 0x20 CALLDATASIZE PUSH1 0x3 NOT ADD SLT PUSH2 0x336 JUMPI DUP1 CALLDATALOAD PUSH1 0x1 PUSH1 0x1 PUSH1 0xA0 SHL SUB DUP2 AND DUP1 DUP3 SUB PUSH2 0x304 JUMPI DUP4 MSTORE PUSH1 0x2 PUSH1 0x20 MSTORE DUP4 DUP4 KECCAK256 DUP5 MLOAD SWAP1 PUSH2 0x41A DUP3 PUSH2 0x1461 JUMP JUMPDEST PUSH1 0xFF DUP2 SLOAD AND SWAP5 DUP5 DUP7 LT ISZERO PUSH2 0x4A9 JUMPI POP PUSH1 0xC0 SWAP6 DUP6 DUP4 MSTORE PUSH1 0xFF PUSH1 0xA0 PUSH1 0x1 DUP5 ADD SLOAD SWAP7 DUP8 PUSH1 0x20 DUP8 ADD MSTORE PUSH1 0x2 DUP6 ADD SLOAD SWAP5 DUP6 DUP6 DUP9 ADD MSTORE PUSH1 0x3 DUP2 ADD SLOAD PUSH1 0x60 DUP9 ADD MSTORE ADD SLOAD SWAP5 DUP3 DUP7 AND ISZERO ISZERO PUSH1 0x80 DUP3 ADD MSTORE ADD SWAP4 PUSH1 0x8 SHR AND ISZERO ISZERO DUP4 MSTORE PUSH2 0x481 PUSH2 0x477 DUP6 PUSH2 0x1630 JUMP JUMPDEST SWAP4 MLOAD ISZERO ISZERO SWAP5 PUSH2 0x180D JUMP JUMPDEST SWAP5 PUSH2 0x48E DUP3 MLOAD DUP1 SWAP9 PUSH2 0x1545 JUMP JUMPDEST PUSH1 0x20 DUP8 ADD MSTORE DUP6 ADD MSTORE ISZERO ISZERO PUSH1 0x60 DUP5 ADD MSTORE PUSH1 0x80 DUP4 ADD MSTORE PUSH1 0xA0 DUP3 ADD MSTORE RETURN JUMPDEST PUSH4 0x4E487B71 PUSH1 0xE0 SHL DUP2 MSTORE PUSH1 0x21 DUP6 MSTORE PUSH1 0x24 SWAP1 REVERT JUMPDEST POP DUP3 CALLVALUE PUSH2 0x336 JUMPI DUP2 PUSH1 0x3 NOT CALLDATASIZE ADD SLT PUSH2 0x336 JUMPI PUSH1 0x20 SWAP1 PUSH1 0x5 SLOAD SWAP1 MLOAD SWAP1 DUP2 MSTORE RETURN JUMPDEST POP SWAP2 SWAP1 CALLVALUE PUSH2 0x27F JUMPI PUSH1 0x20 CALLDATASIZE PUSH1 0x3 NOT ADD SLT PUSH2 0x27F JUMPI CALLDATALOAD SWAP2 PUSH1 0x1 PUSH1 0x1 PUSH1 0xA0 SHL SUB DUP4 AND DUP4 SUB PUSH2 0x516 JUMPI POP PUSH2 0x50D PUSH1 0x20 SWAP3 PUSH2 0x1630 JUMP JUMPDEST SWAP1 MLOAD SWAP1 ISZERO ISZERO DUP2 MSTORE RETURN JUMPDEST DUP1 REVERT JUMPDEST POP DUP3 CALLVALUE PUSH2 0x336 JUMPI PUSH1 0x20 CALLDATASIZE PUSH1 0x3 NOT ADD SLT PUSH2 0x336 JUMPI DUP3 CALLDATALOAD PUSH1 0x1 PUSH1 0x1 PUSH1 0xA0 SHL SUB DUP2 AND SWAP2 SWAP1 DUP3 SWAP1 SUB PUSH2 0x27F JUMPI PUSH2 0x549 PUSH2 0x1552 JUMP JUMPDEST DUP2 DUP4 MSTORE PUSH1 0x2 PUSH1 0x20 MSTORE DUP1 DUP4 KECCAK256 PUSH1 0xFF DUP6 DUP3 ADD SLOAD PUSH1 0x8 SHR AND ISZERO PUSH2 0x629 JUMPI PUSH1 0x2 DUP2 ADD SLOAD SWAP1 PUSH3 0x15180 TIMESTAMP ADD DUP1 TIMESTAMP GT PUSH2 0x616 JUMPI DUP3 GT PUSH2 0x5DB JUMPI PUSH1 0xFF SWAP1 SLOAD AND SWAP1 PUSH3 0x278D00 DUP2 ADD DUP1 SWAP2 GT PUSH2 0x5C8 JUMPI SWAP1 DUP3 SWAP2 PUSH2 0x5BF PUSH32 0x1AF2F2C576585623F24CDD3D12995DE86E6D2EF881E797DAB79B51BC71FB0A9A SWAP5 MLOAD DUP1 SWAP4 PUSH2 0x1545 JUMP JUMPDEST PUSH1 0x20 DUP3 ADD MSTORE LOG2 DUP1 RETURN JUMPDEST PUSH4 0x4E487B71 PUSH1 0xE0 SHL DUP6 MSTORE PUSH1 0x11 DUP7 MSTORE PUSH1 0x24 DUP6 REVERT JUMPDEST DUP3 MLOAD PUSH3 0x461BCD PUSH1 0xE5 SHL DUP2 MSTORE PUSH1 0x20 DUP2 DUP9 ADD MSTORE PUSH1 0x15 PUSH1 0x24 DUP3 ADD MSTORE PUSH21 0x151BDBC819585C9B1E48199BDC881C995B995DD85B PUSH1 0x5A SHL PUSH1 0x44 DUP3 ADD MSTORE PUSH1 0x64 SWAP1 REVERT JUMPDEST PUSH4 0x4E487B71 PUSH1 0xE0 SHL DUP7 MSTORE PUSH1 0x11 DUP8 MSTORE PUSH1 0x24 DUP7 REVERT JUMPDEST DUP2 MLOAD PUSH3 0x461BCD PUSH1 0xE5 SHL DUP2 MSTORE PUSH1 0x20 DUP2 DUP8 ADD MSTORE PUSH1 0x18 PUSH1 0x24 DUP3 ADD MSTORE PUSH32 0x4175746F2D72656E6577616C206E6F7420656E61626C65640000000000000000 PUSH1 0x44 DUP3 ADD MSTORE PUSH1 0x64 SWAP1 REVERT JUMPDEST POP DUP3 CALLVALUE PUSH2 0x336 JUMPI DUP2 PUSH1 0x3 NOT CALLDATASIZE ADD SLT PUSH2 0x336 JUMPI PUSH1 0x20 SWAP1 PUSH1 0x8 SLOAD SWAP1 MLOAD SWAP1 DUP2 MSTORE RETURN JUMPDEST POP DUP3 PUSH1 0x60 CALLDATASIZE PUSH1 0x3 NOT ADD SLT PUSH2 0x336 JUMPI DUP3 CALLDATALOAD DUP4 DUP2 LT ISZERO PUSH2 0x27F JUMPI PUSH1 0x24 SWAP4 DUP5 CALLDATALOAD SWAP2 DUP3 ISZERO ISZERO DUP4 SUB PUSH2 0x27B JUMPI PUSH1 0x44 CALLDATALOAD SWAP1 DUP2 ISZERO ISZERO DUP1 SWAP3 SUB PUSH2 0xA13 JUMPI PUSH1 0x2 SWAP3 DUP4 DUP8 SLOAD EQ PUSH2 0x9D1 JUMPI DUP4 DUP8 SSTORE PUSH2 0x6D6 PUSH2 0x15E9 JUMP JUMPDEST DUP2 ISZERO PUSH2 0x9A0 JUMPI CALLVALUE ISZERO PUSH2 0x96B JUMPI PUSH2 0x6EB DUP3 PUSH2 0x13C6 JUMP JUMPDEST SWAP4 DUP7 MLOAD PUSH2 0x6F7 DUP2 PUSH2 0x142F JUMP JUMPDEST DUP6 SLOAD DUP2 MSTORE PUSH1 0x1 DUP7 ADD SLOAD SWAP1 PUSH2 0x72B DUP5 PUSH1 0x20 SWAP9 DUP10 DUP5 ADD SWAP5 DUP6 MSTORE DUP6 DUP2 ADD SLOAD DUP13 DUP6 ADD MSTORE PUSH1 0xFF PUSH1 0x3 DUP3 ADD SLOAD AND ISZERO ISZERO PUSH1 0x60 DUP6 ADD MSTORE ADD PUSH2 0x149F JUMP JUMPDEST PUSH1 0x80 DUP3 ADD MSTORE DUP8 ISZERO PUSH2 0x962 JUMPI POP MLOAD SWAP6 JUMPDEST ISZERO PUSH2 0x958 JUMPI PUSH4 0x1E13380 SWAP4 JUMPDEST DUP7 CALLVALUE LT PUSH2 0x91F JUMPI CALLER DUP10 MSTORE DUP2 DUP7 MSTORE DUP8 DUP10 KECCAK256 DUP4 DUP2 ADD SWAP3 DUP4 SLOAD PUSH1 0xFF DUP2 AND DUP1 PUSH2 0x913 JUMPI JUMPDEST ISZERO PUSH2 0x8D6 JUMPI POP DUP2 ADD PUSH2 0x779 DUP8 DUP3 SLOAD PUSH2 0x15AA JUMP JUMPDEST SWAP1 SSTORE JUMPDEST PUSH1 0x3 TIMESTAMP SWAP2 ADD SSTORE PUSH2 0xFF00 DUP3 SLOAD SWAP2 PUSH1 0x8 SHL AND SWAP1 PUSH2 0xFF00 NOT AND OR SWAP1 SSTORE CALLER DUP8 MSTORE PUSH1 0x3 DUP5 MSTORE DUP7 DUP7 DUP2 KECCAK256 SSTORE PUSH1 0x8 SLOAD SWAP1 DUP2 CALLVALUE MUL SWAP2 CALLVALUE DUP4 DIV SUB PUSH2 0x8C4 JUMPI POP DUP7 SWAP8 POP SWAP6 PUSH2 0x7C6 PUSH2 0x2710 DUP3 SWAP8 SWAP9 DIV CALLVALUE PUSH2 0x15DC JUMP JUMPDEST PUSH2 0x7D2 DUP2 PUSH1 0x5 SLOAD PUSH2 0x15AA JUMP JUMPDEST PUSH1 0x5 SSTORE DUP1 SELFBALANCE LT ISZERO PUSH2 0x889 JUMPI JUMPDEST POP POP DUP6 MLOAD PUSH2 0x827 SWAP3 PUSH2 0x7F0 DUP3 DUP5 PUSH2 0x1545 JUMP JUMPDEST DUP5 DUP3 ADD MSTORE PUSH32 0xB32D0EE4F7C649974C4703F12139C6581D4DFC9DF7FCBE3EBC75DE386319075B DUP8 CALLER SWAP3 LOG2 DUP6 MLOAD SWAP3 CALLVALUE DUP5 MSTORE DUP4 ADD SWAP1 PUSH2 0x1545 JUMP JUMPDEST PUSH32 0x501BC9AEC8D070365C3DEE92FEF5587B5486A9515C81B44AF5E179EFBAA7EED1 DUP5 CALLER SWAP3 LOG2 DUP1 CALLVALUE GT PUSH2 0x85C JUMPI JUMPDEST POP PUSH1 0x1 DUP2 SSTORE DUP1 RETURN JUMPDEST DUP2 DUP1 PUSH2 0x869 DUP2 SWAP4 CALLVALUE PUSH2 0x15DC JUMP JUMPDEST DUP2 DUP2 ISZERO PUSH2 0x880 JUMPI JUMPDEST CALLER SWAP1 CALL ISZERO PUSH2 0x37D JUMPI DUP2 DUP2 PUSH2 0x854 JUMP JUMPDEST POP PUSH2 0x8FC PUSH2 0x871 JUMP JUMPDEST PUSH1 0x7 SLOAD DUP3 SWAP2 DUP3 SWAP2 DUP3 SWAP2 SWAP1 PUSH1 0x1 PUSH1 0x1 PUSH1 0xA0 SHL SUB AND DUP3 DUP3 ISZERO PUSH2 0x8BB JUMPI JUMPDEST CALL ISZERO PUSH2 0x8B1 JUMPI DUP5 DUP9 PUSH2 0x7DE JUMP JUMPDEST DUP6 MLOAD RETURNDATASIZE DUP7 DUP3 RETURNDATACOPY RETURNDATASIZE SWAP1 REVERT JUMPDEST POP PUSH2 0x8FC PUSH2 0x8A4 JUMP JUMPDEST PUSH4 0x4E487B71 PUSH1 0xE0 SHL DUP9 MSTORE PUSH1 0x11 SWAP1 MSTORE DUP8 DUP8 REVERT JUMPDEST SWAP1 PUSH1 0x1 SWAP2 PUSH1 0xFF NOT SWAP2 DUP3 DUP6 SLOAD AND PUSH1 0xFF DUP11 AND OR DUP6 SSTORE TIMESTAMP DUP5 DUP7 ADD SSTORE PUSH2 0x8F8 DUP11 TIMESTAMP PUSH2 0x15AA JUMP JUMPDEST SWAP1 DUP6 ADD SSTORE AND OR DUP4 SSTORE PUSH2 0x90B PUSH1 0x6 SLOAD PUSH2 0x15CD JUMP JUMPDEST PUSH1 0x6 SSTORE PUSH2 0x77C JUMP JUMPDEST POP DUP2 DUP4 ADD SLOAD TIMESTAMP LT PUSH2 0x766 JUMP JUMPDEST DUP8 MLOAD PUSH3 0x461BCD PUSH1 0xE5 SHL DUP2 MSTORE DUP1 DUP5 ADD DUP8 SWAP1 MSTORE PUSH1 0x14 DUP2 DUP13 ADD MSTORE PUSH20 0x125B9CDD59999A58DA595B9D081C185E5B595B9D PUSH1 0x62 SHL PUSH1 0x44 DUP3 ADD MSTORE PUSH1 0x64 SWAP1 REVERT JUMPDEST PUSH3 0x278D00 SWAP4 PUSH2 0x746 JUMP JUMPDEST SWAP1 POP MLOAD SWAP6 PUSH2 0x73A JUMP JUMPDEST PUSH1 0x64 SWAP1 PUSH1 0x10 DUP10 PUSH1 0x20 DUP10 MLOAD SWAP4 PUSH3 0x461BCD PUSH1 0xE5 SHL DUP6 MSTORE DUP5 ADD MSTORE DUP3 ADD MSTORE PUSH16 0x14185E5B595B9D081C995C5D5A5C9959 PUSH1 0x82 SHL PUSH1 0x44 DUP3 ADD MSTORE REVERT JUMPDEST PUSH1 0x64 SWAP1 PUSH1 0xC DUP10 PUSH1 0x20 DUP10 MLOAD SWAP4 PUSH3 0x461BCD PUSH1 0xE5 SHL DUP6 MSTORE DUP5 ADD MSTORE DUP3 ADD MSTORE PUSH12 0x24B73B30B634B2103A34B2B9 PUSH1 0xA1 SHL PUSH1 0x44 DUP3 ADD MSTORE REVERT JUMPDEST PUSH1 0x64 SWAP1 PUSH1 0x1F DUP10 PUSH1 0x20 DUP10 MLOAD SWAP4 PUSH3 0x461BCD PUSH1 0xE5 SHL DUP6 MSTORE DUP5 ADD MSTORE DUP3 ADD MSTORE PUSH32 0x5265656E7472616E637947756172643A207265656E7472616E742063616C6C00 PUSH1 0x44 DUP3 ADD MSTORE REVERT JUMPDEST DUP6 DUP1 REVERT JUMPDEST POP DUP3 CALLVALUE PUSH2 0x336 JUMPI DUP2 PUSH1 0x3 NOT CALLDATASIZE ADD SLT PUSH2 0x336 JUMPI PUSH1 0x1 SLOAD SWAP1 MLOAD PUSH1 0x1 PUSH1 0x1 PUSH1 0xA0 SHL SUB SWAP1 SWAP2 AND DUP2 MSTORE PUSH1 0x20 SWAP1 RETURN JUMPDEST POP DUP3 CALLVALUE PUSH2 0x336 JUMPI DUP2 PUSH1 0x3 NOT CALLDATASIZE ADD SLT PUSH2 0x336 JUMPI PUSH1 0x20 PUSH32 0x62E78CEA01BEE320CD4E420270B5EA74000D11B0C9F74754EBDBFC544B05A258 SWAP2 PUSH2 0xA7E PUSH2 0x1552 JUMP JUMPDEST PUSH2 0xA86 PUSH2 0x15E9 JUMP JUMPDEST PUSH1 0x1 DUP1 SLOAD PUSH1 0xFF PUSH1 0xA0 SHL NOT AND PUSH1 0x1 PUSH1 0xA0 SHL OR SWAP1 SSTORE MLOAD CALLER DUP2 MSTORE LOG1 DUP1 RETURN JUMPDEST POP SWAP2 SWAP1 CALLVALUE PUSH2 0x27F JUMPI PUSH1 0x20 CALLDATASIZE PUSH1 0x3 NOT ADD SLT PUSH2 0x27F JUMPI DUP1 CALLDATALOAD PUSH1 0x1 PUSH1 0x1 PUSH1 0xA0 SHL SUB DUP2 AND SWAP3 SWAP1 DUP4 SWAP1 SUB PUSH2 0x304 JUMPI PUSH2 0xAD2 PUSH2 0x1552 JUMP JUMPDEST DUP3 ISZERO PUSH2 0xAF5 JUMPI POP POP PUSH12 0xFFFFFFFFFFFFFFFFFFFFFFFF PUSH1 0xA0 SHL PUSH1 0x7 SLOAD AND OR PUSH1 0x7 SSTORE DUP1 RETURN JUMPDEST SWAP1 PUSH1 0x20 PUSH1 0x64 SWAP3 MLOAD SWAP2 PUSH3 0x461BCD PUSH1 0xE5 SHL DUP4 MSTORE DUP3 ADD MSTORE PUSH1 0xF PUSH1 0x24 DUP3 ADD MSTORE PUSH15 0x496E76616C69642061646472657373 PUSH1 0x88 SHL PUSH1 0x44 DUP3 ADD MSTORE REVERT JUMPDEST POP SWAP2 SWAP1 CALLVALUE PUSH2 0x27F JUMPI PUSH1 0xC0 CALLDATASIZE PUSH1 0x3 NOT ADD SLT PUSH2 0x27F JUMPI DUP1 CALLDATALOAD SWAP2 DUP2 DUP4 LT ISZERO PUSH2 0x304 JUMPI PUSH1 0x24 CALLDATALOAD PUSH1 0x44 CALLDATALOAD SWAP3 PUSH1 0x84 CALLDATALOAD SWAP1 DUP2 ISZERO ISZERO DUP1 SWAP3 SUB PUSH2 0xDBB JUMPI PUSH8 0xFFFFFFFFFFFFFFFF PUSH1 0xA4 CALLDATALOAD DUP2 DUP2 GT PUSH2 0xDB7 JUMPI CALLDATASIZE PUSH1 0x23 DUP3 ADD SLT ISZERO PUSH2 0xDB7 JUMPI DUP1 DUP4 ADD CALLDATALOAD SWAP4 DUP3 DUP6 GT PUSH2 0xDA4 JUMPI DUP7 MLOAD SWAP4 PUSH1 0x20 SWAP6 PUSH1 0x1F NOT SWAP3 PUSH2 0xBA3 DUP9 DUP6 PUSH1 0x1F DUP6 ADD AND ADD DUP9 PUSH2 0x147D JUMP JUMPDEST DUP2 DUP8 MSTORE DUP13 CALLDATASIZE PUSH1 0x24 DUP5 DUP9 ADD ADD GT PUSH2 0x516 JUMPI DUP9 DUP4 DUP6 SWAP5 DUP16 SWAP9 PUSH1 0x24 ADD DUP4 DUP13 ADD CALLDATACOPY DUP10 ADD ADD MSTORE PUSH2 0xBCC PUSH2 0x1552 JUMP JUMPDEST DUP10 MLOAD SWAP1 PUSH2 0xBD8 DUP3 PUSH2 0x142F JUMP JUMPDEST DUP10 DUP3 MSTORE DUP9 DUP3 ADD DUP13 DUP2 MSTORE PUSH2 0xC00 DUP13 DUP5 ADD SWAP8 PUSH1 0x64 CALLDATALOAD DUP10 MSTORE PUSH1 0x60 DUP6 ADD SWAP4 DUP5 MSTORE PUSH1 0x80 DUP6 ADD SWAP11 DUP12 MSTORE PUSH2 0x13C6 JUMP JUMPDEST SWAP3 MLOAD DUP4 SSTORE MLOAD SWAP6 PUSH1 0x1 SWAP7 DUP8 DUP5 ADD SSTORE MLOAD PUSH1 0x2 DUP4 ADD SSTORE PUSH1 0x3 DUP3 ADD SWAP1 MLOAD ISZERO ISZERO PUSH1 0xFF DUP1 NOT DUP4 SLOAD AND SWAP2 AND OR SWAP1 SSTORE ADD SWAP5 MLOAD SWAP1 DUP2 MLOAD SWAP5 DUP6 GT PUSH2 0xD91 JUMPI POP PUSH2 0xC3F DUP6 SLOAD PUSH2 0x13F5 JUMP JUMPDEST PUSH1 0x1F DUP2 GT PUSH2 0xD4B JUMPI JUMPDEST POP DUP11 DUP7 SWAP3 PUSH1 0x1F DUP7 GT PUSH1 0x1 EQ PUSH2 0xCC1 JUMPI POP SWAP4 PUSH1 0x60 SWAP10 SWAP8 SWAP6 SWAP4 DUP2 SWAP4 DUP3 SWAP4 PUSH32 0x52411122AF13CDE1F5BB4CD1735D2D3DE551B3E1516262DFB8A18C730246B98C SWAP14 SWAP12 SWAP10 SWAP8 SWAP5 PUSH2 0xCB6 JUMPI JUMPDEST POP POP SHL SWAP2 PUSH1 0x0 NOT SWAP1 PUSH1 0x3 SHL SHR NOT AND OR SWAP1 SSTORE JUMPDEST PUSH2 0xCAC DUP4 MLOAD DUP1 SWAP7 PUSH2 0x1545 JUMP JUMPDEST DUP5 ADD MSTORE DUP3 ADD MSTORE LOG1 DUP1 RETURN JUMPDEST ADD MLOAD SWAP3 POP CODESIZE DUP1 PUSH2 0xC8E JUMP JUMPDEST DUP7 DUP14 MSTORE DUP8 DUP14 KECCAK256 SWAP5 SWAP6 SWAP5 SWAP4 SWAP3 SWAP2 POP DUP5 AND DUP13 JUMPDEST DUP2 DUP2 LT PUSH2 0xD36 JUMPI POP SWAP2 PUSH32 0x52411122AF13CDE1F5BB4CD1735D2D3DE551B3E1516262DFB8A18C730246B98C SWAP12 SWAP10 SWAP8 SWAP6 SWAP4 SWAP2 DUP6 PUSH1 0x60 SWAP13 SWAP11 SWAP9 SWAP7 SWAP5 LT PUSH2 0xD1D JUMPI JUMPDEST POP POP POP DUP2 SHL ADD SWAP1 SSTORE PUSH2 0xCA0 JUMP JUMPDEST ADD MLOAD PUSH1 0x0 NOT PUSH1 0xF8 DUP5 PUSH1 0x3 SHL AND SHR NOT AND SWAP1 SSTORE CODESIZE DUP1 DUP1 PUSH2 0xD10 JUMP JUMPDEST DUP3 DUP5 ADD MLOAD DUP6 SSTORE SWAP4 DUP7 ADD SWAP4 SWAP3 DUP9 ADD SWAP3 DUP9 ADD PUSH2 0xCD2 JUMP JUMPDEST DUP6 DUP13 MSTORE DUP7 DUP13 KECCAK256 PUSH1 0x1F DUP7 ADD PUSH1 0x5 SHR DUP2 ADD SWAP2 DUP9 DUP8 LT PUSH2 0xD87 JUMPI JUMPDEST PUSH1 0x1F ADD PUSH1 0x5 SHR ADD SWAP1 DUP5 SWAP1 JUMPDEST DUP3 DUP2 LT PUSH2 0xD7C JUMPI POP POP PUSH2 0xC48 JUMP JUMPDEST DUP14 DUP2 SSTORE ADD DUP5 SWAP1 PUSH2 0xD6E JUMP JUMPDEST SWAP1 SWAP2 POP DUP2 SWAP1 PUSH2 0xD63 JUMP JUMPDEST PUSH4 0x4E487B71 PUSH1 0xE0 SHL DUP13 MSTORE PUSH1 0x41 SWAP1 MSTORE PUSH1 0x24 DUP12 REVERT JUMPDEST PUSH4 0x4E487B71 PUSH1 0xE0 SHL DUP11 MSTORE PUSH1 0x41 DUP5 MSTORE PUSH1 0x24 DUP11 REVERT JUMPDEST DUP9 DUP1 REVERT JUMPDEST DUP7 DUP1 REVERT JUMPDEST POP SWAP2 SWAP1 CALLVALUE PUSH2 0x27F JUMPI PUSH1 0x20 CALLDATASIZE PUSH1 0x3 NOT ADD SLT PUSH2 0x27F JUMPI CALLDATALOAD SWAP2 PUSH1 0x1 PUSH1 0x1 PUSH1 0xA0 SHL SUB DUP4 AND DUP4 SUB PUSH2 0x516 JUMPI POP PUSH2 0x50D PUSH1 0x20 SWAP3 PUSH2 0x16BD JUMP JUMPDEST POP SWAP2 SWAP1 CALLVALUE PUSH2 0x27F JUMPI PUSH1 0x20 CALLDATASIZE PUSH1 0x3 NOT ADD SLT PUSH2 0x27F JUMPI CALLDATALOAD SWAP2 PUSH1 0x1 PUSH1 0x1 PUSH1 0xA0 SHL SUB DUP4 AND DUP4 SUB PUSH2 0x516 JUMPI POP PUSH2 0xE23 PUSH1 0x20 SWAP3 PUSH2 0x180D JUMP JUMPDEST SWAP1 MLOAD SWAP1 DUP2 MSTORE RETURN JUMPDEST POP CALLVALUE PUSH2 0x516 JUMPI DUP1 PUSH1 0x3 NOT CALLDATASIZE ADD SLT PUSH2 0x516 JUMPI PUSH2 0xE43 PUSH2 0x1552 JUMP JUMPDEST PUSH1 0x1 DUP1 SLOAD PUSH1 0x1 PUSH1 0x1 PUSH1 0xA0 SHL SUB NOT DUP2 AND SWAP1 SWAP2 SSTORE DUP2 SWAP1 PUSH1 0x1 PUSH1 0x1 PUSH1 0xA0 SHL SUB AND PUSH32 0x8BE0079C531659141344CD1FD0A4F28419497F9722A3DAAFE3B4186F6B6457E0 DUP3 DUP1 LOG3 DUP1 RETURN JUMPDEST POP SWAP2 SWAP1 CALLVALUE PUSH2 0x27F JUMPI PUSH1 0x20 DUP1 PUSH1 0x3 NOT CALLDATASIZE ADD SLT PUSH2 0x304 JUMPI DUP2 CALLDATALOAD PUSH1 0x1 PUSH1 0x1 PUSH1 0xA0 SHL SUB DUP2 AND SWAP4 SWAP1 DUP5 DUP2 SUB PUSH2 0xA13 JUMPI PUSH2 0xED3 SWAP1 PUSH2 0xEBD PUSH2 0x1552 JUMP JUMPDEST PUSH2 0xECE PUSH2 0xEC9 DUP3 PUSH2 0x1630 JUMP JUMPDEST PUSH2 0x17C8 JUMP JUMPDEST PUSH2 0x16BD JUMP JUMPDEST ISZERO PUSH2 0x1002 JUMPI DUP4 DUP6 MSTORE PUSH1 0x2 DUP3 MSTORE DUP1 DUP6 KECCAK256 DUP2 MLOAD SWAP1 PUSH2 0xEEE DUP3 PUSH2 0x1461 JUMP JUMPDEST PUSH1 0xFF DUP2 SLOAD AND DUP6 DUP2 LT ISZERO PUSH2 0xFEF JUMPI SWAP2 PUSH1 0xFF DUP7 PUSH2 0xF41 SWAP4 PUSH2 0xF46 SWAP6 DUP5 MSTORE PUSH1 0x1 DUP2 ADD SLOAD DUP9 DUP6 ADD MSTORE PUSH1 0x2 DUP2 ADD SLOAD DUP8 DUP6 ADD MSTORE PUSH1 0x3 DUP2 ADD SLOAD PUSH1 0x60 DUP6 ADD MSTORE ADD SLOAD DUP2 DUP2 AND ISZERO ISZERO PUSH1 0x80 DUP5 ADD MSTORE PUSH1 0x8 SHR AND ISZERO ISZERO PUSH1 0xA0 DUP3 ADD MSTORE PUSH2 0x16B0 JUMP JUMPDEST PUSH2 0x13C6 JUMP JUMPDEST DUP2 MLOAD PUSH2 0xF51 DUP2 PUSH2 0x142F JUMP JUMPDEST DUP2 SLOAD DUP2 MSTORE PUSH1 0x1 DUP3 ADD SLOAD DUP5 DUP3 ADD MSTORE PUSH1 0x80 PUSH2 0xF87 PUSH1 0x2 DUP5 ADD SLOAD SWAP7 DUP6 DUP5 ADD SWAP8 DUP9 MSTORE PUSH1 0xFF PUSH1 0x3 DUP7 ADD SLOAD AND SWAP5 PUSH1 0x60 DUP6 ADD SWAP6 ISZERO ISZERO DUP7 MSTORE ADD PUSH2 0x149F JUMP JUMPDEST SWAP2 ADD MSTORE MLOAD ISZERO PUSH2 0xF94 JUMPI DUP5 DUP1 RETURN JUMPDEST PUSH2 0xFE1 PUSH32 0xF84B6EB413488A833F4EB27CC4F86718538FE9FA9E1390607F0B6A256FA99E65 SWAP4 DUP6 DUP8 MSTORE PUSH1 0x3 DUP5 MSTORE DUP3 DUP8 KECCAK256 PUSH2 0xFCD DUP2 SLOAD PUSH2 0x15CD JUMP JUMPDEST SWAP1 SSTORE MLOAD DUP6 DUP8 MSTORE PUSH1 0x3 DUP5 MSTORE DUP3 DUP8 KECCAK256 SLOAD SWAP1 PUSH2 0x15DC JUMP JUMPDEST SWAP1 MLOAD SWAP1 DUP2 MSTORE LOG2 CODESIZE DUP1 DUP1 DUP1 DUP5 DUP1 RETURN JUMPDEST PUSH4 0x4E487B71 PUSH1 0xE0 SHL DUP9 MSTORE PUSH1 0x21 DUP7 MSTORE PUSH1 0x24 DUP9 REVERT JUMPDEST MLOAD PUSH3 0x461BCD PUSH1 0xE5 SHL DUP2 MSTORE SWAP2 DUP3 ADD MSTORE PUSH1 0x14 PUSH1 0x24 DUP3 ADD MSTORE PUSH20 0x145D595C9E481B1A5B5A5D08195E18D959591959 PUSH1 0x62 SHL PUSH1 0x44 DUP3 ADD MSTORE PUSH1 0x64 SWAP2 POP REVERT JUMPDEST POP DUP3 CALLVALUE PUSH2 0x336 JUMPI DUP2 PUSH1 0x3 NOT CALLDATASIZE ADD SLT PUSH2 0x336 JUMPI PUSH1 0x7 SLOAD SWAP1 MLOAD PUSH1 0x1 PUSH1 0x1 PUSH1 0xA0 SHL SUB SWAP1 SWAP2 AND DUP2 MSTORE PUSH1 0x20 SWAP1 RETURN JUMPDEST POP DUP3 CALLVALUE PUSH2 0x336 JUMPI DUP2 PUSH1 0x3 NOT CALLDATASIZE ADD SLT PUSH2 0x336 JUMPI PUSH1 0x20 SWAP1 PUSH1 0xFF PUSH1 0x1 SLOAD PUSH1 0xA0 SHR AND SWAP1 MLOAD SWAP1 ISZERO ISZERO DUP2 MSTORE RETURN JUMPDEST POP DUP3 SWAP1 CALLVALUE PUSH2 0x516 JUMPI PUSH1 0x20 CALLDATASIZE PUSH1 0x3 NOT ADD SLT PUSH2 0x516 JUMPI DUP3 CALLDATALOAD SWAP1 DUP4 DUP3 LT ISZERO PUSH2 0x516 JUMPI POP PUSH2 0x10B6 PUSH2 0x10E3 SWAP2 PUSH2 0x13C6 JUMP JUMPDEST SWAP2 DUP3 SLOAD SWAP3 PUSH1 0x1 DUP2 ADD SLOAD SWAP5 PUSH2 0x10D8 PUSH1 0x2 DUP4 ADD SLOAD SWAP2 PUSH1 0xFF PUSH1 0x3 DUP6 ADD SLOAD AND SWAP4 ADD PUSH2 0x149F JUMP JUMPDEST SWAP3 MLOAD SWAP6 DUP7 SWAP6 DUP7 PUSH2 0x1362 JUMP JUMPDEST SUB SWAP1 RETURN JUMPDEST POP SWAP2 SWAP1 CALLVALUE PUSH2 0x27F JUMPI PUSH1 0x20 CALLDATASIZE PUSH1 0x3 NOT ADD SLT PUSH2 0x27F JUMPI DUP1 CALLDATALOAD SWAP2 PUSH2 0x1106 PUSH2 0x1552 JUMP JUMPDEST PUSH2 0x3E8 DUP4 GT PUSH2 0x1117 JUMPI POP POP PUSH1 0x8 SSTORE DUP1 RETURN JUMPDEST SWAP1 PUSH1 0x20 PUSH1 0x64 SWAP3 MLOAD SWAP2 PUSH3 0x461BCD PUSH1 0xE5 SHL DUP4 MSTORE DUP3 ADD MSTORE PUSH1 0xC PUSH1 0x24 DUP3 ADD MSTORE PUSH12 0x8CCACA40E8DEDE40D0D2CED PUSH1 0xA3 SHL PUSH1 0x44 DUP3 ADD MSTORE REVERT JUMPDEST POP SWAP2 SWAP1 CALLVALUE PUSH2 0x27F JUMPI DUP3 PUSH1 0x3 NOT CALLDATASIZE ADD SLT PUSH2 0x27F JUMPI PUSH2 0x1164 PUSH2 0x1552 JUMP JUMPDEST PUSH1 0x1 SLOAD SWAP1 PUSH1 0xFF DUP3 PUSH1 0xA0 SHR AND ISZERO PUSH2 0x11AC JUMPI POP PUSH1 0xFF PUSH1 0xA0 SHL NOT AND PUSH1 0x1 SSTORE MLOAD CALLER DUP2 MSTORE PUSH32 0x5DB9EE0A495BF2E6FF9C91A7834C1BA4FDD244A5E8AA4E537BD38AEAE4B073AA SWAP1 PUSH1 0x20 SWAP1 LOG1 DUP1 RETURN JUMPDEST PUSH1 0x64 SWAP1 PUSH1 0x20 DUP5 MLOAD SWAP2 PUSH3 0x461BCD PUSH1 0xE5 SHL DUP4 MSTORE DUP3 ADD MSTORE PUSH1 0x14 PUSH1 0x24 DUP3 ADD MSTORE PUSH20 0x14185D5CD8589B194E881B9BDD081C185D5CD959 PUSH1 0x62 SHL PUSH1 0x44 DUP3 ADD MSTORE REVERT JUMPDEST POP SWAP2 SWAP1 CALLVALUE PUSH2 0x27F JUMPI PUSH1 0x20 CALLDATASIZE PUSH1 0x3 NOT ADD SLT PUSH2 0x27F JUMPI CALLDATALOAD PUSH1 0x1 PUSH1 0x1 PUSH1 0xA0 SHL SUB DUP2 AND SWAP1 DUP2 SWAP1 SUB PUSH2 0x27F JUMPI DUP3 DUP3 SWAP2 PUSH1 0x20 SWAP5 MSTORE PUSH1 0x3 DUP5 MSTORE KECCAK256 SLOAD SWAP1 MLOAD SWAP1 DUP2 MSTORE RETURN JUMPDEST POP DUP3 CALLVALUE PUSH2 0x336 JUMPI DUP2 PUSH1 0x3 NOT CALLDATASIZE ADD SLT PUSH2 0x336 JUMPI PUSH1 0x20 SWAP1 MLOAD PUSH3 0x278D00 DUP2 MSTORE RETURN JUMPDEST POP DUP3 SWAP1 CALLVALUE PUSH2 0x516 JUMPI PUSH1 0x20 CALLDATASIZE PUSH1 0x3 NOT ADD SLT PUSH2 0x516 JUMPI DUP3 CALLDATALOAD SWAP1 DUP4 DUP3 LT ISZERO PUSH2 0x516 JUMPI POP PUSH2 0x126B PUSH2 0x10E3 SWAP2 PUSH2 0x13C6 JUMP JUMPDEST SWAP2 DUP1 MLOAD SWAP1 PUSH2 0x1278 DUP3 PUSH2 0x142F JUMP JUMPDEST DUP4 SLOAD DUP3 MSTORE PUSH1 0x1 DUP5 ADD SLOAD SWAP4 PUSH1 0x20 DUP4 ADD SWAP5 DUP6 MSTORE PUSH2 0x12B0 PUSH1 0x2 DUP3 ADD SLOAD SWAP7 DUP4 DUP6 ADD SWAP8 DUP9 MSTORE PUSH1 0xFF PUSH1 0x3 DUP5 ADD SLOAD AND SWAP3 PUSH1 0x60 DUP7 ADD SWAP4 ISZERO ISZERO DUP5 MSTORE ADD PUSH2 0x149F JUMP JUMPDEST SWAP3 DUP4 PUSH1 0x80 DUP3 ADD MSTORE MLOAD SWAP5 MLOAD SWAP6 MLOAD SWAP1 MLOAD ISZERO ISZERO SWAP2 MLOAD SWAP6 DUP7 SWAP6 DUP7 PUSH2 0x1362 JUMP JUMPDEST POP SWAP2 CALLVALUE PUSH2 0x27F JUMPI DUP3 PUSH1 0x3 NOT CALLDATASIZE ADD SLT PUSH2 0x27F JUMPI CALLER DUP4 MSTORE PUSH1 0x2 PUSH1 0x20 MSTORE DUP3 KECCAK256 ADD DUP1 SLOAD PUSH2 0x12F6 PUSH1 0xFF DUP3 AND PUSH2 0x17C8 JUMP JUMPDEST PUSH2 0xFF00 NOT AND SWAP1 SSTORE CALLER PUSH32 0x71215198E3F86C24DC3AF6D0D7F84D0095E5EE736AA56DAF9927FAE51935E95D DUP3 DUP1 LOG2 DUP1 RETURN JUMPDEST POP DUP3 CALLVALUE PUSH2 0x336 JUMPI DUP2 PUSH1 0x3 NOT CALLDATASIZE ADD SLT PUSH2 0x336 JUMPI PUSH1 0x20 SWAP1 PUSH1 0x6 SLOAD SWAP1 MLOAD SWAP1 DUP2 MSTORE RETURN JUMPDEST SWAP1 POP CALLVALUE PUSH2 0x336 JUMPI DUP2 PUSH1 0x3 NOT CALLDATASIZE ADD SLT PUSH2 0x336 JUMPI DUP1 PUSH4 0x1E13380 PUSH1 0x20 SWAP3 MSTORE RETURN JUMPDEST SWAP4 SWAP2 SWAP6 SWAP5 SWAP3 SWAP1 DUP5 MSTORE PUSH1 0x20 SWAP6 DUP7 DUP6 ADD MSTORE PUSH1 0x40 DUP5 ADD MSTORE ISZERO ISZERO PUSH1 0x60 DUP4 ADD MSTORE PUSH1 0xA0 PUSH1 0x80 DUP4 ADD MSTORE DUP1 MLOAD SWAP1 DUP2 PUSH1 0xA0 DUP5 ADD MSTORE PUSH1 0x0 JUMPDEST DUP3 DUP2 LT PUSH2 0x13B2 JUMPI POP POP PUSH1 0xC0 SWAP3 SWAP4 POP PUSH1 0x0 DUP4 DUP3 DUP5 ADD ADD MSTORE PUSH1 0x1F DUP1 NOT SWAP2 ADD AND ADD ADD SWAP1 JUMP JUMPDEST DUP2 DUP2 ADD DUP7 ADD MLOAD DUP5 DUP3 ADD PUSH1 0xC0 ADD MSTORE DUP6 ADD PUSH2 0x1390 JUMP JUMPDEST PUSH1 0x4 DUP2 LT ISZERO PUSH2 0x13DF JUMPI PUSH1 0x0 MSTORE PUSH1 0x4 PUSH1 0x20 MSTORE PUSH1 0x40 PUSH1 0x0 KECCAK256 SWAP1 JUMP JUMPDEST PUSH4 0x4E487B71 PUSH1 0xE0 SHL PUSH1 0x0 MSTORE PUSH1 0x21 PUSH1 0x4 MSTORE PUSH1 0x24 PUSH1 0x0 REVERT JUMPDEST SWAP1 PUSH1 0x1 DUP3 DUP2 SHR SWAP3 AND DUP1 ISZERO PUSH2 0x1425 JUMPI JUMPDEST PUSH1 0x20 DUP4 LT EQ PUSH2 0x140F JUMPI JUMP JUMPDEST PUSH4 0x4E487B71 PUSH1 0xE0 SHL PUSH1 0x0 MSTORE PUSH1 0x22 PUSH1 0x4 MSTORE PUSH1 0x24 PUSH1 0x0 REVERT JUMPDEST SWAP2 PUSH1 0x7F AND SWAP2 PUSH2 0x1404 JUMP JUMPDEST PUSH1 0xA0 DUP2 ADD SWAP1 DUP2 LT PUSH8 0xFFFFFFFFFFFFFFFF DUP3 GT OR PUSH2 0x144B JUMPI PUSH1 0x40 MSTORE JUMP JUMPDEST PUSH4 0x4E487B71 PUSH1 0xE0 SHL PUSH1 0x0 MSTORE PUSH1 0x41 PUSH1 0x4 MSTORE PUSH1 0x24 PUSH1 0x0 REVERT JUMPDEST PUSH1 0xC0 DUP2 ADD SWAP1 DUP2 LT PUSH8 0xFFFFFFFFFFFFFFFF DUP3 GT OR PUSH2 0x144B JUMPI PUSH1 0x40 MSTORE JUMP JUMPDEST SWAP1 PUSH1 0x1F DUP1 NOT SWAP2 ADD AND DUP2 ADD SWAP1 DUP2 LT PUSH8 0xFFFFFFFFFFFFFFFF DUP3 GT OR PUSH2 0x144B JUMPI PUSH1 0x40 MSTORE JUMP JUMPDEST SWAP1 PUSH1 0x40 MLOAD SWAP2 DUP3 PUSH1 0x0 DUP3 SLOAD SWAP3 PUSH2 0x14B3 DUP5 PUSH2 0x13F5 JUMP JUMPDEST SWAP1 DUP2 DUP5 MSTORE PUSH1 0x1 SWAP5 DUP6 DUP2 AND SWAP1 DUP2 PUSH1 0x0 EQ PUSH2 0x1522 JUMPI POP PUSH1 0x1 EQ PUSH2 0x14DF JUMPI JUMPDEST POP POP PUSH2 0x14DD SWAP3 POP SUB DUP4 PUSH2 0x147D JUMP JUMPDEST JUMP JUMPDEST SWAP1 SWAP4 SWAP2 POP PUSH1 0x0 MSTORE PUSH1 0x20 SWAP1 DUP2 PUSH1 0x0 KECCAK256 SWAP4 PUSH1 0x0 SWAP2 JUMPDEST DUP2 DUP4 LT PUSH2 0x150A JUMPI POP POP PUSH2 0x14DD SWAP4 POP DUP3 ADD ADD CODESIZE DUP1 PUSH2 0x14CF JUMP JUMPDEST DUP6 SLOAD DUP9 DUP5 ADD DUP6 ADD MSTORE SWAP5 DUP6 ADD SWAP5 DUP8 SWAP5 POP SWAP2 DUP4 ADD SWAP2 PUSH2 0x14F2 JUMP JUMPDEST SWAP2 POP POP PUSH2 0x14DD SWAP5 POP PUSH1 0x20 SWAP3 POP PUSH1 0xFF NOT AND DUP3 DUP5 ADD MSTORE ISZERO ISZERO PUSH1 0x5 SHL DUP3 ADD ADD CODESIZE DUP1 PUSH2 0x14CF JUMP JUMPDEST SWAP1 PUSH1 0x4 DUP3 LT ISZERO PUSH2 0x13DF JUMPI MSTORE JUMP JUMPDEST PUSH1 0x1 SLOAD PUSH1 0x1 PUSH1 0x1 PUSH1 0xA0 SHL SUB AND CALLER SUB PUSH2 0x1566 JUMPI JUMP JUMPDEST PUSH1 0x64 PUSH1 0x40 MLOAD PUSH3 0x461BCD PUSH1 0xE5 SHL DUP2 MSTORE PUSH1 0x20 PUSH1 0x4 DUP3 ADD MSTORE PUSH1 0x20 PUSH1 0x24 DUP3 ADD MSTORE PUSH32 0x4F776E61626C653A2063616C6C6572206973206E6F7420746865206F776E6572 PUSH1 0x44 DUP3 ADD MSTORE REVERT JUMPDEST SWAP2 SWAP1 DUP3 ADD DUP1 SWAP3 GT PUSH2 0x15B7 JUMPI JUMP JUMPDEST PUSH4 0x4E487B71 PUSH1 0xE0 SHL PUSH1 0x0 MSTORE PUSH1 0x11 PUSH1 0x4 MSTORE PUSH1 0x24 PUSH1 0x0 REVERT JUMPDEST PUSH1 0x0 NOT DUP2 EQ PUSH2 0x15B7 JUMPI PUSH1 0x1 ADD SWAP1 JUMP JUMPDEST SWAP2 SWAP1 DUP3 SUB SWAP2 DUP3 GT PUSH2 0x15B7 JUMPI JUMP JUMPDEST PUSH1 0xFF PUSH1 0x1 SLOAD PUSH1 0xA0 SHR AND PUSH2 0x15F8 JUMPI JUMP JUMPDEST PUSH1 0x40 MLOAD PUSH3 0x461BCD PUSH1 0xE5 SHL DUP2 MSTORE PUSH1 0x20 PUSH1 0x4 DUP3 ADD MSTORE PUSH1 0x10 PUSH1 0x24 DUP3 ADD MSTORE PUSH16 0x14185D5CD8589B194E881C185D5CD959 PUSH1 0x82 SHL PUSH1 0x44 DUP3 ADD MSTORE PUSH1 0x64 SWAP1 REVERT JUMPDEST PUSH1 0x1 DUP1 PUSH1 0xA0 SHL SUB AND PUSH1 0x0 MSTORE PUSH1 0x2 PUSH1 0x20 MSTORE PUSH1 0x40 PUSH1 0x0 KECCAK256 PUSH1 0x40 MLOAD SWAP1 PUSH2 0x1652 DUP3 PUSH2 0x1461 JUMP JUMPDEST PUSH1 0xFF DUP2 SLOAD AND PUSH1 0x4 DUP2 LT ISZERO PUSH2 0x13DF JUMPI DUP3 MSTORE PUSH1 0x1 DUP2 ADD SLOAD PUSH1 0x20 DUP4 ADD MSTORE PUSH1 0x4 PUSH1 0x2 DUP3 ADD SLOAD SWAP2 DUP3 PUSH1 0x40 DUP6 ADD MSTORE PUSH1 0x3 DUP2 ADD SLOAD PUSH1 0x60 DUP6 ADD MSTORE ADD SLOAD SWAP2 PUSH1 0xA0 PUSH1 0xFF DUP1 DUP6 AND ISZERO ISZERO SWAP5 DUP6 PUSH1 0x80 DUP6 ADD MSTORE PUSH1 0x8 SHR AND ISZERO ISZERO SWAP2 ADD MSTORE DUP2 PUSH2 0x16A9 JUMPI POP SWAP1 JUMP JUMPDEST SWAP1 POP TIMESTAMP LT SWAP1 JUMP JUMPDEST MLOAD PUSH1 0x4 DUP2 LT ISZERO PUSH2 0x13DF JUMPI SWAP1 JUMP JUMPDEST PUSH2 0x16C6 DUP2 PUSH2 0x1630 JUMP JUMPDEST ISZERO PUSH2 0x17C2 JUMPI PUSH1 0x1 PUSH1 0x1 PUSH1 0xA0 SHL SUB AND PUSH1 0x0 DUP2 DUP2 MSTORE PUSH1 0x2 PUSH1 0x20 MSTORE PUSH1 0x40 DUP1 DUP3 KECCAK256 DUP2 MLOAD SWAP2 SWAP3 SWAP2 SWAP1 PUSH2 0x16F2 DUP3 PUSH2 0x1461 JUMP JUMPDEST PUSH1 0xFF DUP2 SLOAD AND PUSH1 0x4 DUP2 LT ISZERO PUSH2 0x17AE JUMPI SWAP2 PUSH1 0xFF PUSH1 0x4 PUSH2 0xF41 SWAP4 PUSH2 0x1748 SWAP6 DUP5 MSTORE PUSH1 0x1 DUP2 ADD SLOAD PUSH1 0x20 DUP6 ADD MSTORE PUSH1 0x2 DUP2 ADD SLOAD DUP9 DUP6 ADD MSTORE PUSH1 0x3 DUP2 ADD SLOAD PUSH1 0x60 DUP6 ADD MSTORE ADD SLOAD DUP2 DUP2 AND ISZERO ISZERO PUSH1 0x80 DUP5 ADD MSTORE PUSH1 0x8 SHR AND ISZERO ISZERO PUSH1 0xA0 DUP3 ADD MSTORE PUSH2 0x16B0 JUMP JUMPDEST SWAP3 DUP3 MLOAD SWAP4 PUSH2 0x1755 DUP6 PUSH2 0x142F JUMP JUMPDEST DUP1 SLOAD DUP6 MSTORE PUSH1 0x1 DUP2 ADD SLOAD PUSH1 0x20 DUP7 ADD MSTORE PUSH1 0x2 DUP2 ADD SLOAD SWAP5 DUP5 DUP2 ADD SWAP6 DUP7 MSTORE PUSH1 0x80 PUSH2 0x178E PUSH1 0x4 PUSH1 0xFF PUSH1 0x3 DUP7 ADD SLOAD AND SWAP5 PUSH1 0x60 DUP6 ADD SWAP6 ISZERO ISZERO DUP7 MSTORE ADD PUSH2 0x149F JUMP JUMPDEST SWAP2 ADD MSTORE MLOAD PUSH2 0x17A5 JUMPI DUP2 MSTORE PUSH1 0x3 PUSH1 0x20 MSTORE KECCAK256 SLOAD SWAP1 MLOAD GT SWAP1 JUMP JUMPDEST POP POP POP POP PUSH1 0x1 SWAP1 JUMP JUMPDEST PUSH4 0x4E487B71 PUSH1 0xE0 SHL DUP5 MSTORE PUSH1 0x21 PUSH1 0x4 MSTORE PUSH1 0x24 DUP5 REVERT JUMPDEST POP PUSH1 0x0 SWAP1 JUMP JUMPDEST ISZERO PUSH2 0x17CF JUMPI JUMP JUMPDEST PUSH1 0x40 MLOAD PUSH3 0x461BCD PUSH1 0xE5 SHL DUP2 MSTORE PUSH1 0x20 PUSH1 0x4 DUP3 ADD MSTORE PUSH1 0x16 PUSH1 0x24 DUP3 ADD MSTORE PUSH22 0x27379030B1BA34BB329039BAB139B1B934B83A34B7B7 PUSH1 0x51 SHL PUSH1 0x44 DUP3 ADD MSTORE PUSH1 0x64 SWAP1 REVERT JUMPDEST PUSH2 0x1816 DUP2 PUSH2 0x1630 JUMP JUMPDEST ISZERO PUSH2 0x17C2 JUMPI PUSH1 0x1 PUSH1 0x1 PUSH1 0xA0 SHL SUB AND PUSH1 0x0 DUP2 DUP2 MSTORE PUSH1 0x2 PUSH1 0x20 MSTORE PUSH1 0x40 DUP1 DUP3 KECCAK256 DUP2 MLOAD SWAP3 SWAP4 SWAP3 SWAP1 PUSH2 0x1842 DUP3 PUSH2 0x1461 JUMP JUMPDEST PUSH1 0xFF DUP2 SLOAD AND PUSH1 0x4 DUP2 LT ISZERO PUSH2 0x1915 JUMPI SWAP2 PUSH1 0xFF PUSH1 0x4 PUSH2 0xF41 SWAP4 PUSH2 0x1898 SWAP6 DUP5 MSTORE PUSH1 0x1 DUP2 ADD SLOAD PUSH1 0x20 DUP6 ADD MSTORE PUSH1 0x2 DUP2 ADD SLOAD DUP8 DUP6 ADD MSTORE PUSH1 0x3 DUP2 ADD SLOAD PUSH1 0x60 DUP6 ADD MSTORE ADD SLOAD DUP2 DUP2 AND ISZERO ISZERO PUSH1 0x80 DUP5 ADD MSTORE PUSH1 0x8 SHR AND ISZERO ISZERO PUSH1 0xA0 DUP3 ADD MSTORE PUSH2 0x16B0 JUMP JUMPDEST SWAP2 DUP2 MLOAD SWAP3 PUSH2 0x18A5 DUP5 PUSH2 0x142F JUMP JUMPDEST DUP1 SLOAD DUP5 MSTORE PUSH1 0x1 DUP2 ADD SLOAD PUSH1 0x20 DUP6 ADD MSTORE PUSH1 0x2 DUP2 ADD SLOAD SWAP4 DUP4 DUP2 ADD SWAP5 DUP6 MSTORE PUSH1 0x80 PUSH2 0x18DE PUSH1 0x4 PUSH1 0xFF PUSH1 0x3 DUP7 ADD SLOAD AND SWAP5 PUSH1 0x60 DUP6 ADD SWAP6 ISZERO ISZERO DUP7 MSTORE ADD PUSH2 0x149F JUMP JUMPDEST SWAP2 ADD MSTORE MLOAD PUSH2 0x190B JUMPI DUP4 MSTORE PUSH1 0x3 PUSH1 0x20 MSTORE DUP3 KECCAK256 SLOAD SWAP1 MLOAD DUP1 DUP3 LT PUSH2 0x18FE JUMPI POP POP SWAP1 JUMP JUMPDEST PUSH2 0x1908 SWAP3 POP PUSH2 0x15DC JUMP JUMPDEST SWAP1 JUMP JUMPDEST POP POP POP POP PUSH1 0x0 NOT SWAP1 JUMP JUMPDEST PUSH4 0x4E487B71 PUSH1 0xE0 SHL DUP7 MSTORE PUSH1 0x21 PUSH1 0x4 MSTORE PUSH1 0x24 DUP7 REVERT INVALID LOG2 PUSH5 0x6970667358 0x22 SLT KECCAK256 PUSH18 0x45262305F9A3828C2D33362E3D8848D88206 0xD6 SWAP10 0x26 0xF9 PUSH22 0xA5BF7E736F90DDBD64736F6C63430008130033000000 "},"methodIdentifiers":{"FEE_DENOMINATOR()":"d73792a9","MONTH_DURATION()":"2a891534","YEAR_DURATION()":"0dc0ba72","canMakeQuery(address)":"7c06d000","cancelSubscription()":"24e9edb0","emergencyWithdraw()":"db2e21bc","getContractStats()":"dfe6b5d6","getRemainingQueries(address)":"7b8c448b","getSubscriptionDetails(address)":"d474f84f","getTierPricing(uint8)":"272f896c","hasActiveSubscription(address)":"bebe4a57","owner()":"8da5cb5b","pause()":"8456cb59","paused()":"5c975abb","processAutoRenewal(address)":"bd6fbbd1","protocolFee()":"b0e21e8a","queryUsage(address)":"2c4b2ff1","renounceOwnership()":"715018a6","subscribe(uint8,bool,bool)":"b0e19476","subscriptions(address)":"f046395a","tierPricing(uint8)":"59454897","totalRevenue()":"bf2d9e0b","totalSubscribers()":"15e2475f","transferOwnership(address)":"f2fde38b","treasury()":"61d027b3","unpause()":"3f4ba83a","updateProtocolFee(uint256)":"4256dd78","updateTierPricing(uint8,uint256,uint256,uint256,bool,string)":"7c6abc7a","updateTreasury(address)":"7f51bb1f","useQuery(address)":"70f05232"}}}}}